:100000000C9469050C94DB050C94DB050C94DB0562
:100010000C94DB050C94D3660C94E9790C948F67EF
:100020000C94DB050C94DB050C94DB050C94DB05D0
:100030000C94DB050C947B680C94DB050C94DB05BD
:100040000C94DB050C94DB050C94DB050C94DB05B0
:100050000C94DB050C94DB050C94DB050C94056813
:100060000C94DB050C94F3730C94DB050C946E7408
:100070000C94DB050C94DB050C94DB050C94DB0580
:100080000C94DB050C94DB050C94DB050C94DB0570
:100090000C94E8740C94DB050C9463750C947973E0
:1000A0000C94DB050C94DB050C94DB050C94DB0550
:1000B0000C94DB050C94DB050C94DB050C94DB0540
:1000C0000C94DB050C94DB050C94DB05F6693F6AA8
:1000D000866AAC6AC06AE86AF06A156BF369376BC6
:1000E0007E6B846B8A6B906BAD6B966BAD6BE36BC9
:1000F000B86BCD6B7265636569766564205B25734B
:100100005D007265636569766564205B25645D00EA
:10011000436F6E6E656374696E6720636C69656EAC
:10012000740045746865726E6574205374617274EE
:100130007570204D6573736167653A205B25645D5A
:10014000005254432074696D65205B253032643A57
:10015000253032643A253032645D00770075617273
:100160007430000A000A23446562756720000A2380
:10017000496E666F2020000A234E6F746963200069
:100180000A235761726E2020000A234572722020D4
:1001900020000A23437269742020000A23416C6501
:1001A000727420000A23456D65726720003F3F206E
:1001B0003C444D4B3E200057443A200056533A20D1
:1001C0000056453A200055543A200055443A200044
:1001D00055413A200053523A200053503A200053E0
:1001E000473A200053453A200053543A20005254D5
:1001F0003A200052433A2000504C3A200050413AF5
:1002000020004D443A20004D4D3A20004D453A2003
:100210000053593A20004C473A20004C453A200000
:100220004B423A2000494E3A200048543A200046BA
:100230004C3A200046413A200044503A2000434DB9
:100240003A200043483A200041553A20003080309F
:1002500000170780B0173C06001750003F24000627
:1002600000162012008F570000CE101229009900AE
:10027000004D0080404C180600D7960028550D0010
:1002800000480D0600505B0930420080B001801428
:100290004240BC182840C71336423C003E03B81405
:1002A00000031B1500C259D66F24000036039812B4
:1002B00028D55700004D000028402BF33624004C71
:1002C00080103E1438103E0A78133E0DB8033E05E8
:1002D000F806009555093015141B00D4FF0300CE15
:1002E000FF01000A000024CE168AB5240092F20015
:1002F000945261240002FE2400B24824004A4501C1
:10030000B6F33605D8F3360D98F0360A58002000BB
:1003100000F0361418618013362400123E17B8120C
:100320003E1538053E14B82536240000000A80101A
:100330003E03B8944105B8113E2400113E07B8149D
:100340003E1278143E0DF8033E0EF80600510000F0
:1003500028D5240000240088B81200046405040095
:100360000024000028582194402400002402210089
:100370000024009864030856FE2400B6482400D6E2
:100380004D2400103A24C0F03224C056FE2400B69A
:10039000482400D64D24008443834496638C88000F
:1003A000F4D540003D2480060091003F00C3FE06C6
:1003B0000053000131248060FE2400BE4824003434
:1003C000A6030C244324008442022C0600110000E2
:1003D00028D82400312480060011500039248006DA
:1003E00000110000314C9884424C9000F488400089
:1003F00028452800002400F03C40380930413809E5
:1004000030103800200000000088270930D01B0081
:100410002880280930811BF334CC1BF3360ED8F426
:10042000360DD8F4361258F1360798F1360518F023
:1004300036039805341490F3362400F2361518006C
:10044000200000F2361798AD80123E17B8123E1504
:1004500038053E14B81536240000000A80103E020C
:1004600078103E04F8113E1078143E12781329805B
:10047000C9143E24C0132980C988404C1800F405D3
:10048000400000C018006424000000C01B00289534
:1004900030300010030028803F01382440006424DD
:1004A000000000401A002855370600D05500000310
:1004B0007D84B84C1809300538093000008AFF24C3
:1004C000001D29007BB248240000004118060010DE
:1004D000508A4044B800290013884024000030CCE2
:1004E0001B14602400300051030028D5360000247E
:1004F00000060011000031240030005103003824B0
:10050000000028803F01392440006424003000D0DE
:10051000030028553F0000037D0600D05584B84CE9
:100520001809300538093000008AFF24001D290011
:100530007BB24824008A40CC9B000041180028551B
:100540003B060010509A68240000302400146024F8
:1005500000300092030028853E060091000600113D
:1005600000000052180600530080B80024060091D5
:10057000000438248030009203003B240001392419
:10058000400028803F013A24400138244080B8D3FD
:100590001BF4361258F1361058F03604D8F03602F3
:1005A0005805341490F3362400F236151800200054
:1005B00000F236179830000000000045786974009A
:1005C00000000053EF6E000000004578697453EF9F
:1005D0006E4DEA6D5400000000070606060606068A
:1005E00006060606060606060606060606060606AB
:1005F000060606060606060606060606060606069B
:10060000060606060606060606060606060606068A
:100610000606070606060606060606060606060679
:10062000060606060606060606060606060606066A
:100630000606060606060606060606060607060659
:10064000060606060606060606060606060606064A
:10065000060606060606060606060606060606063A
:10066000060606060606060606060606060606062A
:10067000060606060606060606060606060606061A
:10068000060606060606060606060606060606060A
:1006900006060606060606060606060606060606FA
:1006A00006060606060606060606060606060606EA
:1006B00006060606060606060606060606060606DA
:1006C00006060606060606060606060606060606CA
:1006D00006060606060607060606060606060606B9
:1006E00006060606060606060606060606060606AA
:1006F000060606060606060606060606060606069A
:100700000606060606060606060606060606060689
:100710000606060606060606060606060606060679
:100720000606060606060606060606060606060669
:100730000606060606060606060606060606060659
:100740000606060606060606060606060606060649
:100750000606060606060606060606060606060639
:100760000606060606060606060606060606060629
:100770000606060606060606060606060606060619
:100780000606060606060606060606060606546859
:1007900072656164206661696C65640043617264BE
:1007A0005072657300436172642072656D6F766587
:1007B00064004361726420696E73657274656400DD
:1007C0004572726F7220696E697469616C697369D0
:1007D0006E672046696C652073797374656D20615E
:1007E0006E6420436172642D6472697665720043A1
:1007F000617264206D6F756E74656400696E7661F8
:100800006C6964205370656564006572726F722054
:10081000647572696E672043534420726561640099
:10082000466F75742062696A206F6E7476616E67B8
:10083000656E20636C69656E742064617461004745
:1008400065656E20466F75742062696A207A656EF0
:1008500064656E20636C69656E7420646174613FC9
:1008600000466F75742062696A207A656E64656EF1
:1008700020636C69656E74206461746100466F75F5
:10088000742062696A20636F6E6E656374656E20A2
:10089000736F636B6574004E54502074696D6520EE
:1008A00069733A20253032643A253032643A253073
:1008B00032640A00466F75742062696A206F70683E
:1008C000616C656E206E74702074696A642C20708F
:1008D0006F67696E67656E206F7665723A25640092
:1008E00052657472696576696E672074696D6520FA
:1008F00066726F6D2037382E3139322E36352E36EE
:10090000332E2E2E004950203D205B25645D2C5B4C
:1009100025645D2C5B25645D2C5B25645D0045745E
:100920006865726E65742053746172747570204DC1
:100930006573736167653A204F4B00446973636F59
:100940007665722053657276696365206661696CAD
:100950006564005265676973746572696E672065C6
:10096000746865726E6574206661696C65642E00DA
:10097000FFFFFF30FFFFFFFFFFFFFFFFFFFFFFFF56
:10098000FFFF000000000000000000000000000069
:100990000000000000000000000000000000000057
:1009A0000000000000000000000000000000000047
:1009B0000000000000000000000000000000000037
:1009C0000000000000000000000000000000000027
:1009D0000000000000000000000000000000000017
:1009E0000000000000000000000000000000000007
:1009F00000000000000000000000000000000000F7
:100A000000000000000000000000000000000000E6
:100A100000000000000000000000000000000000D6
:100A200000000000000000000000000000000000C6
:100A300000000000000000000000000000000000B6
:100A400000000000000000000000000000000000A6
:100A50000000000000000000000000000000000096
:100A60000000000000000000000000000000000086
:100A70000000000000000000000000000000000076
:100A80000000000000000000000000000000000066
:100A90000000000000000000000000000000000056
:100AA0000000000000000000000000000000000046
:100AB0000000000000000000000000000000000036
:100AC0000000000000000000000000000000000026
:100AD000000084E880937400479A3F9A469A3E9AB1
:100AE00081EE809300C380E4809301C385B78F7744
:100AF00085BF80E090E0359B05C0019641F0359BB5
:100B0000F8CFFBCF019619F03599F3CFFBCF85B71E
:100B1000806885BF47983F9846983E9887E08093C5
:100B2000C4008093CC0011241FBECFEFD1E2DEBF02
:100B3000CDBF15E0A0E0B2E0EEEDF5E101E00BBFC6
:100B400002C007900D92A033B107D9F719E0A0E3D6
:100B5000B5E001C01D92AB39B107E1F78FEF9FE718
:100B60009EBF8DBF8FEF9FE78B5999408158914071
:100B700040F06FEF7EE76B5979408BE999E00E9476
:100B8000D9590E949C62892B41F06FE973E08FE68E
:100B900099E00E94318A0E94836220E831E040E0BF
:100BA00050E063ED79E288EA93E00E9453650E9489
:100BB00000000C94EE8A0C94000087EF84B98CE05E
:100BC0008AB98BB18C70836F8BB98EE88DB98EB179
:100BD0008E7881608EB985B7806885BF85B780685B
:100BE00085BF8EE080BB81B38E70816F81BB88E151
:100BF00083BB0895DF92EF92FF920F931F93CF93E1
:100C0000DF93CDB7DEB7C653D2400FB6F894DEBF40
:100C10000FBECDBF0E94631084E60E94C75D0E9494
:100C2000DD050E9405120E94910A0E94540C81E089
:100C30000E94AB0B80E092E00E942C0C0E944008C6
:100C40000E94F4070E946B0A0E94E910DE011196CF
:100C5000E3E6F2E080E301900D928150E1F766E077
:100C6000CE0101960E94EA0B0E948D238DED98E043
:100C70000E94A923892B11F58091DD089091DE084F
:100C80009F938F938091DF089091E0089F938F93BB
:100C90008091E1089091E2089F938F9381E491E025
:100CA0009F938F9386EC8F930E942B098DB79EB7ED
:100CB00009960FB6F8949EBF0FBE8DBF0E946121AA
:100CC0000E94F50F0E94670B40E050E066EF76E06F
:100CD0008BEE93E00E94C662892B49F485B584604F
:100CE00085BDA89A80916E00816080936E000E94FD
:100CF0001E0C20E032E040E050E06BEF76E080E157
:100D000092E00E94536520E032E040E050E067EA64
:100D100077E084E192E00E9453650E9421299F932D
:100D20008F9382E291E09F938F9386EC8F930E9442
:100D30002B098E010B5D1D4FC8010E942428ABECCE
:100D4000B8E0F80182E101900D928150E1F78BEC5F
:100D500098E00E941D2781E00E94FD5C78940E942B
:100D6000F8418C0180E191E09F938F9396ECD92E0E
:100D7000DF920E942B09C8010E94062840E250E041
:100D800063E472E0C8010E94ED2781E3E82EF12CB4
:100D9000EC0EFD1E44EF51E0B701C8010E94D627BA
:100DA0009F938F9382E091E09F938F93DF920E94B5
:100DB0002B09FF92EF9284EF90E09F938F93DF9245
:100DC0000E942B09C8010E94D3278DB79EB7429677
:100DD0000FB6F8949EBF0FBE8DBF64E670E080E052
:100DE00090E00E94D95E0E946110F7CF0E94990A9C
:100DF0000E9490100895CF93DF93CDB7DEB7609730
:100E00000FB6F894DEBF0FBECDBF64E080E00E9455
:100E1000150C89E192E00E942C0C21E0C22ED12C0D
:100E20006BE081E00E94150C83E292E00E942C0CA2
:100E30006CE081E00E94150C85E292E00E942C0C8F
:100E40006DE081E00E94150C87E292E00E942C0C7C
:100E50006FE080E00E94150C89E292E00E942C0C69
:100E60006FE081E00E94150C8BE292E00E942C0C56
:100E700064E670E080E090E00E94D95E60E080E08F
:100E80000E94150C8DE292E00E942C0C0E944A0BED
:100E9000082F81508C3710F5802F992787FD90956A
:100EA0009F938F9381E392E09F938F937E010894A9
:100EB000E11CF11CFF92EF920E94058063E0681B29
:100EC00080E00E94150CC7010E942C0C8DB79EB7C4
:100ED00006960FB6F8949EBF0FBE8DBF0D3069F415
:100EE00090E081E0C816D10409F491E081E09827F0
:100EF000C92EDD248C2D0E94AB0B64E670E080E0EF
:100F000090E00E94D95E8CCF2091DD083091DE0800
:100F10003F932F932091DF083091E0083F932F9368
:100F20002091E1083091E2083F932F9324E332E0CF
:100F30003F932F939F938F930E9405808DB79EB709
:100F40000A960FB6F8949EBF0FBE8DBF089564E653
:100F500070E080E090E00E94D95E8DED98E00E9404
:100F6000A923892B21F488E292E80E94840768E291
:100F700072E880E090E00E943B0CE9CF8091300560
:100F80009091310508958091300590913105009739
:100F900031F00E94637E1092310510923005089561
:100FA000CF93DF93CDB7DEB724970FB6F894DEBFAB
:100FB0000FBECDBF69837A838B839C83809130057C
:100FC000909131050E94B47EAE014F5F5F4F63E1A7
:100FD00071E00E94F97D24960FB6F894DEBF0FBE33
:100FE000CDBFDF91CF910895EF92FF920F931F93A2
:100FF000CF93DF93CDB7DEB72D970FB6F894DEBF52
:101000000FBECDBF80E092ECA1E0B0E08C839D8369
:10101000AE83BF8388E0E82EF12CEC0EFD1E6DE55B
:1010200071E0C7010E94E3896BE571E08E010F5FFB
:101030001F4FC8010E94E38940918B0450918C049A
:10104000B801C7010E94147F909331058093300549
:10105000009749F00E94B47EAE014C5F5F4F61E0A3
:1010600071E00E94F97D2D960FB6F894DEBF0FBE99
:10107000CDBFDF91CF911F910F91FF90EF90089519
:10108000109231051092300540E060E070E087EF8B
:1010900093E00E945762089590913205883010F4D1
:1010A00080933205892F992708952F923F924F926E
:1010B0005F926F927F928F929F92AF92BF92CF92E8
:1010C000DF92EF92FF920F931F93CF93DF93CDB7F1
:1010D000DEB7CD54D0400FB6F894DEBF0FBECDBF03
:1010E0007C016B011A01892B09F48EC094E0692EF2
:1010F000712C44245524AA24BB24A0E0B0E000E0D5
:1011000010E07EC0C5018F709070892B69F54DE4A9
:1011100050E060E270E08E010F5F1F4FC8010E9437
:10112000168A9301220F331F220F331F24503040A1
:1011300040E050E0D801F201022E02C0F695E7959A
:101140000A94E2F7EF70F070ED56FD4F80818D93B9
:101150004F5F5F4F245030404615570561F7D3016C
:10116000129683010C5C1F4FF6019081E92FE295E6
:10117000EF70FF27ED56FD4F50814D010894811C03
:10118000911CE92FFF27EF70F070ED56FD4F408165
:10119000892F80528F3510F08EE201C0892F9E0179
:1011A0002F5F3F4FA20FB31F5C93F901E80DF91DAC
:1011B0004083F901E00FF11F80830F5F1F4F0894F8
:1011C000A11CB11CC5018F709070892B19F0A2145D
:1011D000B30489F4F901E00FF11F1082B701C901CE
:1011E0000E94A77FB7018AE090E00E947F7F80E1A4
:1011F00090E0480E591E0894C11CD11CD4011296CF
:10120000A214B30409F07ECFC35BDF4F0FB6F8948E
:10121000DEBF0FBECDBFDF91CF911F910F91FF9029
:10122000EF90DF90CF90BF90AF909F908F907F9086
:101230006F905F904F903F902F900895609133058D
:10124000709134056115710529F0992787FD9095F6
:101250000E947F7F08951F93CF93DF93CDB7DEB7B2
:1012600022970FB6F894DEBF0FBECDBF19856091EF
:101270003305709134056115710509F410C1212FF2
:101280003327277030708091320599278217930792
:101290000CF405C1812F87708330F1F0843028F47D
:1012A0008130A1F08230A8F40EC08530D9F08530AD
:1012B000B0F08630D1F0873019F485E691E017C0A0
:1012C00083E691E014C084EA91E011C08BE991E0DB
:1012D0000EC082E991E00BC089E891E008C080E887
:1012E00091E005C087E791E002C08EE691E00E94A0
:1012F000B87F6091330570913405212F287F2837FE
:1013000009F4AAC0293790F5283309F499C0293384
:10131000B0F4283109F48EC0293138F4283009F4AA
:1013200086C0203109F053C055C0283209F485C069
:10133000203309F455C0203209F049C04EC0283589
:1013400009F484C0293548F4283409F47CC02035D8
:1013500009F44CC02034D9F546C0283609F479C0C8
:10136000203709F449C0203691F543C0283B09F4E1
:101370007FC0293BA8F4283909F474C0293940F406
:10138000283809F46CC02039E9F1203801F537C05C
:10139000283A09F46AC0203BD9F1203AC1F435C09B
:1013A000283D09F46BC0293D40F4283C09F463C092
:1013B000203DA1F1203C59F42EC0283E29F0203FC9
:1013C00099F1203E21F42DC087EB91E059C08DEAC0
:1013D00091E056C088E492E053C083E492E050C0AC
:1013E0008EE392E04DC089E392E04AC084E392E04C
:1013F00047C08FE292E044C08AE292E041C085E2B9
:1014000092E03EC080E292E03BC08BE192E038C0C7
:1014100086E192E035C081E192E032C08CE092E05A
:101420002FC087E092E02CC082E092E029C08DEFCF
:1014300091E026C088EF91E023C083EF91E020C0C7
:101440008EEE91E01DC089EE91E01AC084EE91E02D
:1014500017C08FED91E014C08AED91E011C085EDC9
:1014600091E00EC080ED91E00BC08BEC91E008C0E4
:1014700086EC91E005C081EC91E002C08CEB91E03C
:101480000E94B87FAE01445F5F4F5A8349836A85EB
:101490007B8580913305909134050E94CC7F229604
:1014A0000FB6F894DEBF0FBECDBFDF91CF911F9175
:1014B000089580913305909134051092340510926F
:1014C00033050E94A37E08950E94BE0790933405C1
:1014D00080933305089587E0809332050E94640A63
:1014E0000895833059F0843018F4882339F008C007
:1014F000853031F0853040F0863091F48B9801C012
:101500008B9A80933505089580913505813021F4BB
:101510008B981092350508958B9A81E0809335055C
:1015200008958B9810923505089580913505992777
:101530000895A398000000006FB1A39AA49800003A
:1015400000004FB1A49A5B98000000008FB15B9A35
:101550005A98000000002FB15A9A62956F70772751
:10156000407F5527642B752B807F992734E0880FA7
:10157000991F3A95E1F7682B792B207F3327322F7B
:101580002227622B732B70933905609338058FEFF8
:101590006F3B780709F458C08FEF603C7807F8F488
:1015A0008BEF6F3F780709F45EC08CEF60307807EF
:1015B00048F48FEE6F3F780709F45BC06F5F774F99
:1015C00089F548C08EEF6F3F780709F449C08FEF67
:1015D0006F37780781F16F5F7D4F21F547C08FEF3F
:1015E000673F780759F18FEF683F780760F48FEF16
:1015F0006F3D780791F18FEF6F3E780741F16F5C97
:101600007F4F81F40CC08FEF6D3F780789F08FEF2B
:101610006E3F7807B1F06B5F7F4F21F406C08EE01C
:1016200090E029C088E890E026C081E090E023C0E7
:1016300082E090E020C083E090E01DC084E090E074
:101640001AC085E090E017C086E090E014C087E003
:1016500090E011C088E090E00EC089E090E00BC0FF
:101660008AE090E008C08BE090E005C08CE090E05C
:1016700002C08DE090E080933A050895E82F862F10
:101680008150823030F4E03120F4FF27E25CFA4FE1
:101690006083089580913A059927089580933A05CB
:1016A000E0913605F0913705309739F48FEF9FEFD1
:1016B000909337058093360508958FEFEF3FF80735
:1016C00029F0848195810196958384830895A39A56
:1016D000A49A5B9A5A9A10923D058FEF9FEF9093D0
:1016E0003905809338050FB6F8940F92109237059C
:1016F000109236050F900FBE8FEF80933A05EEE300
:10170000F5E082E0819395E0EE34F907D9F7109285
:101710003C0510923B0561E088E00E943E0B61E0D1
:101720008BE00E943E0B61E08AE00E943E0B61E08C
:101730008CE00E943E0B0895AB01BC0186E395E06E
:101740000E94C16120E030E08F5F9F4F11F421E0E3
:1017500030E0C9010895813011F4739A0895882307
:1017600009F4739808959AB19F70906F9AB99BB1DC
:101770009F70607F962B9BB9823011F48A9801C0CC
:101780008A9A729A0000000072988A988AB18F70C3
:101790008AB98BB18F70806F8BB908950F931F93A7
:1017A000082F162F8A98899A729A000000004F9984
:1017B000FBCF72988A988998612F607F802F0E9452
:1017C000B30B1295107F612F802F0E94B30B1F91D6
:1017D0000F910895EF92FF920F931F93CF93DF9392
:1017E0008C01F62E60E482E00E94CE0BCF2DDD2727
:1017F000C7FDD09583E0CC0FDD1F8A95E1F7EE247D
:10180000FF2409C0F80161918F0183E00E94CE0B93
:101810000894E11CF11CEC16FD06A4F3DF91CF91B6
:101820001F910F91FF90EF900895811180E46068FF
:10183000862B682F82E00E94CE0B089561E082E043
:101840000E94CE0B62E082E00E94CE0B0895682FCA
:1018500083E00E94CE0B0895CF93DF93EC0103C089
:101860000E94270C2196209719F088818823C1F7C0
:10187000DF91CF910895EF92FF920F931F938C0108
:101880007B0160E080E00E94150CC8010E942C0CD6
:1018900060E081E00E94150CC7010E942C0C1F9192
:1018A0000F91FF90EF9008951F938CE80E94C75D01
:1018B00010E063E382E00E94B30B84E00E94C75D06
:1018C0001F5F1330B1F762E282E00E94B30B81E048
:1018D0000E94C75D68E282E00E94CE0B85E00E9414
:1018E000C75D6CE082E00E94CE0B85E00E94C75D80
:1018F00061E082E00E94CE0B85E00E94C75D66E059
:1019000082E00E94CE0B60E882E00E94CE0B1F9125
:1019100008950FB6F8940F929DB3882311F0EE9AB4
:1019200001C0EE980F900FBE892F992726E096955B
:1019300087952A95E1F781709070089580E00E9464
:10194000890C982F80914E05813011F410924E052C
:10195000892F0E94890C80E090E0089580914E05C7
:101960009927089580914F05909150050895809191
:101970004F059091500508950F931F93CF93DF93D8
:10198000EC018B0180E090E00E94091205C0FE018D
:1019900084910E94F111219601501040FFEF0F3FFA
:1019A0001F07A9F70E94E611DF91CF911F910F91B8
:1019B00008951F9380E00E94890C182F64E070E066
:1019C0008BEB95E00E94BC0C64E070E087EB95E047
:1019D0000E94BC0C812F0E94890C80E090E01F9136
:1019E00008950F931F93CF93DF938C01EB0180E059
:1019F00090E00E94091205C0F80181918F010E94B8
:101A0000F1112197FFEFCF3FDF07B1F70E94E611F9
:101A1000DF91CF911F910F910895EF92FF920F9355
:101A20001F93F82E8B010E94ED11E82E80E00E949A
:101A3000EA1180E090E00E9409122C9882E00E9456
:101A4000F1118F2D0E94F111812F99270E94F11120
:101A5000802F0E94F1112C9A0E94E6118E2D0E9477
:101A6000EA111F910F91FF90EF900895DF92EF928E
:101A7000FF920F931F93082FE62E80E00E94890C9F
:101A8000D82E1127102F0027FF240E291F29B80157
:101A90008BE00E940D0D8D2D0E94890C80E090E05E
:101AA0001F910F91FF90EF90DF900895FF920F9399
:101AB0001F938C0180E00E94890CF82E1C60B801F5
:101AC00080E00E940D0D8F2D0E94890C80E090E037
:101AD0001F910F91FF9008951F93CF93DF93CDB780
:101AE000DEB721970FB6F894DEBF0FBECDBF898356
:101AF00080E00E94890C182F80E290E00E94560D31
:101B000063E070E083EC95E00E94BC0C61E070E063
:101B1000CE0101960E94F10C64E070E08FEB95E03D
:101B20000E94BC0C812F0E94890C80E090E02196DD
:101B30000FB6F894DEBF0FBECDBFDF91CF911F91DE
:101B40000895282F332727703070C90153E0880F7C
:101B5000991F5A95E1F7820F931F885C0E946C0DC4
:101B60000895DF92EF92FF920F931F93CF93DF932D
:101B7000CDB7DEB721970FB6F894DEBF0FBECDBF4D
:101B800089837B0180E00E94890CD82E80E290E05E
:101B90000E94560D89818295807F885C898363E0ED
:101BA00070E08EEC95E00E94BC0C61E070E0CE012C
:101BB00001960E94F10C06EC15E064E070E0C801AB
:101BC0000E94BC0C8E2D0E94C75D64E070E08AEC20
:101BD00095E00E94BC0C64E070E0C8010E94BC0C5F
:101BE0008D2D0E94890C80E090E021960FB6F8942C
:101BF000DEBF0FBECDBFDF91CF911F910F91FF9040
:101C0000EF90DF9008950F931F938C0180E00E9466
:101C1000890C10924E05C80184600E94560D8AE01E
:101C20000E94C75D80E48CBB80E090E01F910F9123
:101C30000895DF92EF92FF920F931F93182F0E9447
:101C4000ED11D82E80E00E94EA1180E090E00E9421
:101C500009122C9883E00E94F111812F0E94F1114A
:101C60000E94F611E82EFF24FE2CEE240E94F611AD
:101C7000082F2C9A0E94E6118D2D0E94EA1111273F
:101C8000C701802B912B1F910F91FF90EF90DF9058
:101C90000895FF920F931F9380E00E94890CF82E05
:101CA0008BE00E94190E8C018F2D0E94890CC801B7
:101CB0001F910F91FF900895FF920F931F93182F7C
:101CC00080E00E94890CF82E812F0E94190E8C0151
:101CD0008F2D0E94890CC8011F910F91FF900895CC
:101CE00089E00E945C0E9C018FEF213E380790F541
:101CF0008DE424353807A1F18DE42535380768F4E3
:101D000081E424353807F9F08DE424333807D9F01D
:101D100081E42434380709F516C087E52D363807E5
:101D2000F9F087E52E36380728F487E52D34380793
:101D3000A1F409C086E72536380729F08FEF203E49
:101D4000380759F40DC080914F05909150050397C5
:101D500039F403C020EE3FEF03C080E090E0089527
:101D6000C901089580E00E94890C2F982C9A289828
:101D7000209A84E00E94C75D80E00E94EA111092E0
:101D80004E052F9A84E00E94C75D81E00E94190EE3
:101D900074E0969587957A95E1F7877090709093A7
:101DA000500580934F05039719F460E070EE02C070
:101DB00060E078E983E00E940D0D82E30E94C75D38
:101DC00080E090E00E94560D60E080E00E94360DB9
:101DD00082E30E94C75D80914F0590915005039763
:101DE000029710F482E001C081E00E94EA1140E015
:101DF00050E06AE07FE085EE93E00E94C66266E014
:101E000070E085EE93E00E94446380E48CBB80E048
:101E100090E00895BF92CF92DF92EF92FF920F93DE
:101E20001F93CF93DF93CDB7DEB722970FB6F89409
:101E3000DEBF0FBECDBF80914E05813009F04FC08F
:101E4000669B4DC080E00E94890CB82E78941A825F
:101E5000198280E090E00E940912F0E2EF2EF12C4E
:101E600000E010E0CC24DD2403C0EFE1EE2EF12CE5
:101E700089819A81C816D906C0F0C114D10419F01D
:101E8000C6010E94E15ACE0101960E94605A8C015F
:101E900089819A81892B19F0CC24DD2408C082E045
:101EA00080934E05CC24DD2412C0892B41F0F8012B
:101EB00081918F010E94F1110894C11CD11C669977
:101EC000D4CF0894E108F108E114F10489F60E94E6
:101ED000E611C6010E947E5B8B2D0E94890C229622
:101EE0000FB6F894DEBF0FBECDBFDF91CF911F912B
:101EF0000F91FF90EF90DF90CF90BF9008950F93D8
:101F00001F93CF93DF9380914E05813009F435C044
:101F100080E00E94890CCDE4D2E0FE0165917491CD
:101F2000E9EDF5E0E4918E2F0E940D0D00E010E048
:101F300011C0FE0165917491F801E752FA4FE491E6
:101F40008E2F0E940D0DC80164EF71E00E94778A08
:101F5000892B11F40E9461100F5F1F4F229681E0C0
:101F6000053B180731F781E080934E0580E090E053
:101F70000E940A0F81E00E94890C80E090E0DF91CE
:101F8000CF911F910F9108951F93CF93DF9380E01E
:101F900090E00E94030E80E290E00E94560D80E0E7
:101FA0000E94890C182F68E070E081ED95E00E9496
:101FB000BC0C88E20E94C75D88E00E94190EEC010B
:101FC000812F0E94890C80914F05909150050397B5
:101FD00031F480E8CF37D80711F4C0E0D0E0CE016B
:101FE000DF91CF911F910895089580916A008C7FB1
:101FF00080936A0040E050E064EF7FE08FED93E073
:102000000E94C662892B31F480916A0082608093BD
:102010006A00EC9A80918100836080938100AD9A80
:102020000FB6F8940F9210925205109251050F902E
:102030000FBE0895EF92FF920F931F93AB01BC0167
:10204000A89521E0E12CE8E0FE2E012D112D01C024
:102050002F5FD801C701022E04C0880F991FAA1F45
:10206000BB1F0A94D2F737E0B695A7959795879549
:102070003A95D1F784179507A607B70748F3209339
:1020800054052A3018F029702093540520915405E6
:1020900023FF02C038E201C038E088E190E02770F9
:1020A000322B0FB6F894A895809360000FBE309342
:1020B000600081E0809353051F910F91FF90EF9096
:1020C0000895A895089580915305882319F08F5F8E
:1020D0008093530588E10FB6F894809360001092C6
:1020E00060000FBE0895809153058230C0F081508A
:1020F00080935305813099F42091540523FF02C049
:1021000038E201C038E088E190E02770322B0FB64A
:10211000F894A895809360000FBE309360000895F6
:1021200080915805909159058130910589F0813051
:10213000910530F08230910521F10397E9F52DC02A
:1021400078993AC081E08093570581E090E020C003
:10215000789912C0809157058F5F809357058E3113
:1021600059F581E08093560582E090E090935905FF
:102170008093580581E021C01092590510925805AE
:102180001BC0789B19C081E08093570583E090E0E5
:1021900090935905809358050FC0809157058F5F24
:1021A00080935705843141F41092560510925905D9
:1021B0001092580580E001C082E09927089580912F
:1021C00056059927089580915A0590915B050895C9
:1021D00008950F931F93CF93DF93CDB7DEB72A9760
:1021E0000FB6F894DEBF0FBECDBF10925905109206
:1021F0005805109256056CE977E08E010F5F1F4F6E
:10220000C8010E94E389C8010E94A95C892BB1F42E
:1022100020E033E040E050E06AEA71E1C8010E944A
:102220005365892B59F48EE897E09F938F9380EE46
:102230008F930E942B090F900F900F902A960FB644
:10224000F894DEBF0FBECDBFDF91CF911F910F91EC
:102250000895FF920F931F93CF93DF93CDB7DEB70F
:102260002A970FB6F894DEBF0FBECDBF85EA92E085
:102270000E943B62892BB9F480E00E94890CF82E01
:1022800040E067E070E083EA92E00E9457628C01D0
:10229000892B51F540E067E070E086EC92E00E9407
:1022A00057628C0121C00E94CB1580E00E94890CEE
:1022B000F82EE091B602F091B702309729F083EA48
:1022C00092E01995892B59F4E091D902F091DA0244
:1022D000309741F086EC92E01995892B19F00FEFB9
:1022E0001FEF02C000E010E08F2D0E94890C011545
:1022F0001105C1F48FEE97E09F938F9386EE8F9335
:102300000E942B0960E070E0CE0101960E940B7ED6
:102310000F900F900F902FEF8F3F920771F00E9458
:10232000E37D0BC080EC97E09F938F9383EE8F93B8
:102330000E942B090F900F900F90C8012A960FB69C
:10234000F894DEBF0FBECDBFDF91CF911F910F91EB
:10235000FF9008958091560580935505809156050C
:102360008130B9F480915505882349F582EB97E0D7
:102370009F938F9386EE8F930E942B090E942911C1
:102380000F900F900F90892B29F780E10E944E0B40
:10239000E1CF8823A1F480915505813081F485EA4D
:1023A00097E09F938F9386EE8F930E942B098091E5
:1023B0005605809355050F900F900F90CFCF64EF87
:1023C00071E080E090E00E94D95EC8CF779A2E98A5
:1023D0002D9A089580935C05089580915C05992756
:1023E00008958EBD0DB407FEFDCF08958FEF8EBD0D
:1023F0000DB407FEFDCF8EB5992708958EBD0DB49F
:1024000007FEFDCF8EB599270895779A2E982D9ABD
:1024100008959C010097F9F480915C05882321F4CC
:1024200081E08DBD81E504C0813021F41DBC80E5D3
:102430008CBD25C0823019F481E08DBDF8CF8CEFC2
:1024400097E09F938F938BE78F930E942B090F90B8
:102450000F900F9014C0019741F481E08DBD80E58D
:102460008CBD2D9A2E98779808951DBC80E58CBD63
:102470002130310520F02230310541F404C0779A33
:102480002D9A2E9A0895779A2E982D98089580E087
:1024900090E0089580E090E0089580E090E0089555
:1024A00040E050E060E070E08DE595E00E94C161A1
:1024B0000895CF93DF93CEEFDFEF0E94F6118F3FA9
:1024C00011F42197D1F79927DF91CF910895CF93F8
:1024D000DF93CEEFDFEF0E94F6118E3F11F02197D0
:1024E000D1F79927DF91CF910895DF92EF92FF9274
:1024F0000F931F93D82E8B017A0182E090E00E9407
:1025000009128FEF0E94F1118D2D80640E94F1114C
:10251000812F99270E94F111802F0E94F1118F2D98
:1025200099270E94F1118E2D0E94F11185E90E94D8
:10253000F1118FEF0E94F1111F910F91FF90EF9019
:10254000DF9008956F927F928F929F92AF92BF9289
:10255000CF92DF92EF92FF920F931F93CF93DF936F
:102560005B0169017A013801882499243AC0A601E7
:10257000542F4427550FC701B60127E0969587953C
:10258000779567952A95D1F781E10E9475120E948F
:1025900067128E3F29F00E94E61181E090E026C08C
:1025A0008501C0E0D0E00E94F611F80181938F010F
:1025B0002196F2E0C030DF07B1F780E092E0A80E8C
:1025C000B91E8FEF0E94F1118FEF0E94F1110E944E
:1025D000E6110894811C911C0894C11CD11CE11CBB
:1025E000F11C8614970419F680E090E0DF91CF91FA
:1025F0001F910F91FF90EF90DF90CF90BF90AF9021
:102600009F908F907F906F9008958DE595E00E9448
:102610006E6108952F923F924F925F926F927F92D8
:102620008F929F92AF92BF92CF92DF92EF92FF92E2
:102630000F931F93CF93DF93CDB7DEB728970FB6D5
:10264000F894DEBF0FBECDBFF82E6B0139014A01F1
:1026500018010E945012FF2019F022E030E0A8C0BB
:10266000C801AA27BB27860D971DA81DB91D20915B
:102670006205309163054091640550916505281706
:1026800039074A075B0728F483E090E09E838D8337
:1026900002C01E821D8280915F059091600597FDAA
:1026A00004C0E2E0F0E0FE83ED8396FD7FC02D8163
:1026B0003E81232B09F092C0DC82CB8272C03FEFB7
:1026C0002316310409F010F4610103C0C12CA1E00C
:1026D000DA2E4B805C80840173011A82198253C008
:1026E000A701542F4427550FC801B701E7E096957D
:1026F000879577956795EA95D1F788E10E947512DD
:102700000E9459128F3F09F445C08EEF0E94F111CB
:10271000520118861F82F50181915F010E94F1111B
:102720002F8138852F5F3F4F38872F8320503240CD
:1027300091F7E0E0F2E04E0E5F1E8FEF0E94F11184
:102740008FEF0E94F1118FEF0E94F1115FEFA52E24
:10275000B52E0E94F611882339F40894A108B10817
:10276000A114B104B9F0F5CF0894E11CF11C011DCE
:10277000111DAB2879F00E94E61129813A812F5F63
:102780003F4F3A83298389819A818C159D0509F0F1
:10279000A7CF11C00E94E611E1E0F0E0FE83ED83D7
:1027A0001DC02114310409F08ACF18C028E030E0A0
:1027B0003E832D8313C0C601AA27BB27680E791E4E
:1027C0008A1E9B1E2C183D08DC2CCC24DD0C8B8132
:1027D0009C818C0D9D1D9C838B83E3CF0E940513F0
:1027E0008D819E8128960FB6F894DEBF0FBECDBFB7
:1027F000DF91CF911F910F91FF90EF90DF90CF90DD
:10280000BF90AF909F908F907F906F905F904F9010
:102810003F902F9008958F929F92AF92BF92CF9248
:10282000DF92EF92FF920F931F93CF93DF93F82ED7
:10283000EB0149015A0168010E945012FF20F1F496
:1028400080915F059091600597FF18C0C801AA2785
:10285000BB27880D991DAA1DBB1D209162053091D3
:1028600063054091640550916505281739074A07AB
:102870005B0708F042C003E010E044C002E010E053
:1028800041C02FEFC216D10409F010F4E60102C0D6
:10289000C0E0D1E08E01A5019401B7018FE595E07C
:1028A0000E94A2128C01892B69F5CE01AA27BB27B1
:1028B000880E991EAA1EBB1ECC1ADD0A80916605E1
:1028C000909167059C01C29FC001C39F900DD29F4C
:1028D000900D1124E80EF91EC114D10491F600E008
:1028E00010E010C001E010E0A5019401BE018FE5E9
:1028F00095E00E94A2128C0105C07E0101301105F5
:1029000059F7F0CF0E940513C801DF91CF911F91B5
:102910000F91FF90EF90DF90CF90BF90AF909F907E
:102920008F900895EF92FF920F931F93182F0E949C
:102930005012112321F0EE24FF24870108C0E090FB
:102940006205F090630500916405109165050E9491
:102950000513C801B7011F910F91FF90EF900895E3
:102960001F93CF93DF93182F0E945012112319F059
:10297000C0E0D0E004C0C0916605D09167050E9418
:102980000513CE01DF91CF911F910895CF92DF9271
:10299000EF92FF920F931F93CF93DF93CDB7DEB7E4
:1029A00060970FB6F894DEBF0FBECDBF6B010E94DB
:1029B000501280915F059091600597FF8AC040E0BA
:1029C00050E060E070E089E00E9475120E9467129A
:1029D0008E3F61F08AE098E09F938F9383EF8F930F
:1029E0000E942B090F900F900F9073C08E010F5F04
:1029F0001F4F0E94F611F80181938F01CE0141967D
:102A0000E817F907B1F78FEF0E94F1118FEF0E94DD
:102A1000F1110E94E611EE80FFE0EF2221E030E0AC
:102A2000C90102C0880F991FEA94E2F77C016F8107
:102A3000772763707070762F6627770F770FE8859A
:102A4000FF27EE0FFF1FEE0FFF1F6E2B7F2B098559
:102A50001127EA85FF27E370F070DF01AA0FBB1F83
:102A6000EA2BFB2BAB85BB2786E0169507958A954D
:102A7000E1F7602B712B6F5F7F4F88279927AA0F93
:102A8000AB2FAA1FBB0BB195EA2BFB2B329602C0D2
:102A9000220F331FEA95E2F7442755270E94388A10
:102AA0006093620570936305809364059093650558
:102AB000F0926705E09266050E94051301E010E0C0
:102AC00020E030E040E050E0B60180E00E940B14CE
:102AD00004C00E94051381E090E060960FB6F89460
:102AE000DEBF0FBECDBFDF91CF911F910F91FF9041
:102AF000EF90DF90CF900895CF93DF9370936905A7
:102B00006093680550936B0540936A0589E0EFE593
:102B1000F5E011928A95E9F7109261058DE595E04F
:102B20000E946E61C0E0D0E08FEF0E94F11121960B
:102B3000CA30D105C9F740E050E060E070E080E0C5
:102B40000E9475120E945912813099F4CFEFDFEF85
:102B500007C040E050E060E070E081E00E94751244
:102B60000E94F611882319F0219799F702C0CD2B06
:102B700029F40E94E61181E090E00AC00E94E6116B
:102B800080E090E89093600580935F0580E090E09E
:102B9000DF91CF91089510926D0510926C05089504
:102BA000EF92FF920F931F93CF93DF93EC017A0183
:102BB0008B018B8180FD1AC08EEF9FEFAFEFBFEFCF
:102BC000E80EF91E0A1F1B1F2A81332744275527A9
:102BD000C801B7010E94388AAB01BC018A8D9B8D68
:102BE000AC8DBD8D480F591F6A1F7B1FCB01BA01E9
:102BF000DF91CF911F910F91FF90EF9008958FEF8C
:102C00009FEF08958FEF9FEF0895282F8F3F11F4C6
:102C100020E006C0882321F099270E94C78A282F28
:102C2000822F992787FD909508958F929F92AF925A
:102C3000BF92CF92DF92EF92FF920F931F93FC010E
:102C40006A017B01838180FF07C0CB01BA016F5FFE
:102C50007F4F8F4F9F4F69C0808182889388A4885F
:102C6000B58860917005709171058130A9F5A70153
:102C70009601A7E05695479537952795AA95D1F7E0
:102C8000280D391D4A1D5B1D01E010E081810E9465
:102C90000B148091700590917105F601EF77F0703B
:102CA000EE0FFF1FEE0FFF1FE80FF91F608171810C
:102CB000828193819F706F3F2FEF72072FEF820702
:102CC0002FE0920771F1673F2FEF72072FEF820716
:102CD0002FE0920751F525C055274F2D3E2D2D2D64
:102CE000280D391D4A1D5B1D01E010E081810E9405
:102CF0000B148091700590917105F601F070EE0F44
:102D0000FF1FE80FF91F208131818FEF2F3F380718
:102D100041F08FEF273F380721F0B9018827992725
:102D200004C060E070E080E090E01F910F91FF90A0
:102D3000EF90DF90CF90BF90AF909F908F900895CD
:102D40002F923F924F925F926F927F928F929F92BB
:102D5000AF92BF92CF92DF92EF92FF920F931F93A9
:102D6000CF93DF93CDB7DEB76A970FB6F894DEBF87
:102D70000FBECDBF988B8F877A8B698B5C8B4B8B0B
:102D800018012901FE8AED8AD88ECF8AD7011D92BB
:102D90001D921D921C921397DA010D900020E9F705
:102DA0001197A41BB50BCD010C966DE070E00E944D
:102DB000778AF62FF064F983F53E09F496C18DE029
:102DC000689F900111243B832A832F3331050CF037
:102DD0008CC17901BF2E1E86CC24DD2480C1B201B6
:102DE000A1018F8598890E94D015688779878A8785
:102DF0009B87EF85F8898281282F33273D872C8791
:102E000031E0231631044104510479F48081882390
:102E100061F482859385A485B58588879987AA877B
:102E2000BB87268137813D872C87688479848A8493
:102E30009B8442C1609170057091710501E010E0C2
:102E4000A4019301EF85F88981810E940B142091E0
:102E50007005309171053F832E83809172059091AA
:102E600073059D838C833A8F298F9E85913019F449
:102E7000E98DFA8D1DC02F89388D232B99F5A98DE9
:102E8000BA8D8C91853E71F1882361F14BE050E061
:102E900069897A89CD010E94008A892B19F5E9890F
:102EA000FA899385E98DFA8D838589238917D1F471
:102EB00084899589AA27BB27AC0133272227828DD5
:102EC000938DAA27BB27282B392B4A2B5B2B848D6C
:102ED000958DA68DB78DED89FE8980839183A28320
:102EE000B38307C1E98DFA8D83858F3009F0D0C097
:102EF000A080AB1409F0CCC0B6FE0DC0BFEBAB2E6A
:102F0000AB20AC81BD81AE0DBF1D1C920894E108C1
:102F1000F108CC80DD80E98DFA8D868D978D0E9439
:102F20000516F601EE0DFF1D80838701015010404C
:102F3000E98DFA8D848D958D0E940516F601E00FBE
:102F4000F11F808301501040E98DFA8D808D918DA5
:102F50000E940516F601E00FF11F8083015010401A
:102F6000E98DFA8D868997890E940516F601E00F92
:102F7000F11F808301501040E98DFA8D8489958975
:102F80000E940516F601E00FF11F808301501040EA
:102F9000E98DFA8D828993890E940516F601E00F6A
:102FA000F11F808301501040E98DFA8D808991894D
:102FB0000E940516F601E00FF11F808301501040BA
:102FC000E98DFA8D868597850E940516F601E00F3A
:102FD000F11F808301501040E98DFA8D8185928523
:102FE0000E940516F601E00FF11F8083015010408A
:102FF000E98DFA8D878190850E940516F601E00F14
:10300000F11F808301501040E98DFA8D85819681F2
:103010000E940516F601E00FF11F80830150104059
:10302000E98DFA8D838194810E940516F601E00FE7
:10303000F11F808301501040E98DFA8D81819281CA
:103040000E940516F601E00FF11F8083BA2CBA9496
:1030500029F078010894E108F1081AC0AB89BC890D
:103060000D900020E9F711972B893C89A21BB30B27
:10307000AD01B601C9010E94008A892B31F4EA80B2
:10308000FB80B98031E03E8703C0EA80FB80B980D5
:10309000898D9A8D80969A8F898F8E819F8180509D
:1030A0009E4FA98DBA8DA817B90709F0DECE0894F6
:1030B000611C711C811C911CC301E885F9858E1B64
:1030C0009F0B2C853D85821793070CF4B3CEB2017C
:1030D000A1018F8598890E9415161B012C012114CE
:1030E00031044104510409F07ACE20E030E040E0A0
:1030F00050E0CA01B9016A960FB6F894DEBF0FBE60
:10310000CDBFDF91CF911F910F91FF90EF90DF9096
:10311000CF90BF90AF909F908F907F906F905F9077
:103120004F903F902F9008958AED95E00E946E6138
:1031300008958AED95E00E946E61089540E050E0A8
:1031400060E070E08AED95E00E94C16108952F92E1
:103150003F924F925F926F927F928F929F92AF9227
:10316000BF92CF92DF92EF92FF920F931F93CF9374
:10317000DF93CDB7DEB728970FB6F894DEBF0FBE4A
:10318000CDBF8C016B015E834D830E949E1801159B
:10319000110509F4F6C0F8010481158118870F8321
:1031A0000115110509F4EDC06D817E816115710570
:1031B00009F4E7C0F801E484F584068517852081C9
:1031C000318142815381E216F3060407150708F0A6
:1031D000D2C0CB01AA2797FDA095BA2F8E0D9F1DB7
:1031E000A01FB11F281739074A075B0720F42E19C3
:1031F0003F093E832D83EF81F885008CF18DE02D12
:10320000FC83EB83DA82C982248035804D805E8026
:10321000ABC0EF81F88560887188828893885101FE
:10322000CC24DD2440855185628573858B819C810A
:103230000E94D0157B018C01C401B301A601950148
:103240000E948A8A442737FD4095542F2E0D3F1D3A
:10325000401F511F609170057091710501E010E0F1
:10326000EB81FC8181810E940B14892B09F079C0CC
:10327000C401B301A60195010E948A8A610142142A
:1032800053040CF46201CB018C0D9D1D28163906E8
:103290001CF46101C61AD70A8091700590917105DE
:1032A000680F791FA60189819A810E940D8A760193
:1032B0000027F7FC0095102FEF81F88524853585D0
:1032C000468557852E0D3F1D401F511F248735878A
:1032D0004687578780899189A289B3898E0D9F1D62
:1032E000A01FB11F808B918BA28BB38B80819181AA
:1032F000A281B381281739074A075B0720F081E0D4
:1033000090E0978B868BEF81F885208931894289FF
:103310005389EB81FC81868D978DA0A1B1A12817DF
:1033200039074A075B07A0F0EF81F8854085518592
:10333000628573858B819C810E941516EF81F885CB
:103340006087718782879387108A118A128A138A0D
:1033500069817A816C0D7D1D7A8369834C185D08C3
:1033600003C08DEF9FEF09C04114510409F051CF04
:103370000D811E8108C08EEF9FEFEF81F885958B40
:10338000848B00E010E00E949918C80128960FB6BF
:10339000F894DEBF0FBECDBFDF91CF911F910F918B
:1033A000FF90EF90DF90CF90BF90AF909F908F9065
:1033B0007F906F905F904F903F902F900895EF9285
:1033C000FF920F931F93CF93DF93EC010E949E18FF
:1033D000209749F0EC81FD81309729F0E080F18061
:1033E0000281138108C00FEFE02E0FEFF02E0FEFD8
:1033F000002F0FEF102F0E949918C801B701DF911D
:10340000CF911F910F91FF90EF900895CF93DF938D
:10341000EC010E949E18209719F4CFEFDFEF0BC04C
:103420008C819D81009711F00E946C59CE010E9401
:103430006C59C0E0D0E00E949918CE01DF91CF9185
:1034400008950F931F938C010E949E18012B11F475
:10345000109276050E9499181F910F9108952F924E
:103460003F924F925F926F927F928F929F92AF9214
:10347000BF92CF92DF92EF92FF920F931F93CF9361
:10348000DF93CDB7DEB724970FB6F894DEBF0FBE3B
:10349000CDBF182F0E949E1880916E0590916F05E8
:1034A000892B41F480E490E00E94F95890936F05D5
:1034B00080936E058091720590917305892B41F47C
:1034C00080E490E00E94F958909373058093720510
:1034D0008091700590917105892B59F480E092E0FC
:1034E0000E94F9589093710580937005892B09F417
:1034F00045C180916E0590916F05892B09F43EC1FD
:103500008091720590917305892B09F437C182E28D
:10351000189FF0011124EC58FA4F11928A95E9F79F
:10352000E12EFF242701440C551CC70135E0880F0C
:10353000991F3A95E1F7480E591E24E735E0420EEF
:10354000531EF2011183812F0E94B014F201958362
:103550008483812F0E944712019721F4F201838115
:1035600081608383812F0E944A12019721F4F20126
:10357000838182608383F2018481958180509240AF
:1035800019F001E010E0FCC0F201838181FF05C069
:1035900020E230E040E050E038C06091700570916A
:1035A000710501E010E020E030E040E050E08E2DB9
:1035B0000E940B148C01892B09F0E2C0E091700588
:1035C000F0917105E250FE4F80819181EE5FF140F4
:1035D00085559A4A09F0D4C0E653FE4F8081918107
:1035E000A281B381EA5CF1400097A105B10509F41D
:1035F000C7C0EA53FE4F208131814281538121159A
:1036000031054105510509F4BBC060917005709109
:10361000710501E010E08E2D0E940B1420907005C2
:10362000309071054EEF51E0240E351ED1018D9181
:103630009C91E2E0FEEF2E0E3F1E85559A4A09F05E
:103640009DC0F1018585F2018283F10126893789C8
:103650002115310571F0C901AA27BB2789839A83F7
:10366000AB83BC83D2011C9281E090E0A0E0B0E08B
:1036700010C0F10124A135A146A157A129833A83A5
:103680004B835C8381E0D2018C9384A595A5A6A58C
:10369000B7A5F20186879787A08BB18BF10163856F
:1036A00074858189928925E0880F991F2A95E1F711
:1036B000860F971F01970E94638A3B0188249924F3
:1036C000E684F78400271127A48CB58CC68CD78C90
:1036D000AE0CBF1CC01ED11EF201A28AB38AC48ADE
:1036E000D58A29813A814B815C81A20EB31EC41E0A
:1036F000D51EA68AB78AC08ED18EF1016089772740
:10370000882799270E94388AF101248D358D468DAE
:10371000578DE20EF31E041F151FE60CF71C081D43
:10372000191DE60EF71E081F191FF201E28EF38E17
:10373000048F158FF10185859927F2012481358148
:10374000AC01429FC001439F900D529F900D1124E8
:10375000AA27BB27868F978FA0A3B1A36682778203
:103760008086918629813A814B815C81A20EB31EAD
:10377000C41ED51EA286B386C486D58600E010E09E
:103780000E949918C80124960FB6F894DEBF0FBEA8
:10379000CDBFDF91CF911F910F91FF90EF90DF9000
:1037A000CF90BF90AF909F908F907F906F905F90E1
:1037B0004F903F902F9008952F923F924F925F929B
:1037C0006F927F928F929F92AF92BF92CF92DF9231
:1037D000EF92FF920F931F93CF93DF93CDB7DEB796
:1037E0002E970FB6F894DEBF0FBECDBFFC01892B1C
:1037F00009F4A1C2848180330CF49DC282330CF49D
:1038000090C2863409F097C28CC20E949E188091A3
:103810007805909179050E94F9589E878D87892BAC
:1038200009F489C230907505832D0E9492142B01F2
:103830003C0180EE9FEFAFEFBFEF480E591E6A1EAE
:103840007B1EE9EEF2E09F012C5F3F4F808191816A
:10385000A281B38184159505A605B70538F0D90175
:103860008C919927282E882341F00CC02B5F3F4F65
:103870003596B3E02B303B0749F78D859E850E9436
:103880006C5959C29927AA27BB2789839A83AB838E
:10389000BC83C301B20129813A814B815C810E94C2
:1038A0008A8ADA01C90102E0880F991FAA1FBB1F8B
:1038B0000A95D1F781509E4FAF4FBF4F19E0B69593
:1038C000A795979587951A95D1F789879A87AB879A
:1038D000BC874C015D01880C991CAA1CBB1C89810A
:1038E0009A81AB81BC81815A9F4FAF4FBF4F880EE9
:1038F000991EAA1EBB1E8F559040A040B0408983E0
:103900009A83AB83BC83409178055091790560E040
:1039100070E08D859E850E94168ACC24DD24760178
:1039200010C001E010E0A70196016D857E85832D12
:103930000E940A13892B51F40894C11CD11CE11C6C
:10394000F11CC814D904EA04FB0459F780E090E0A4
:103950000E9428826D837E838F83988740917805AB
:103960005091790560E070E08D859E850E94168AF1
:10397000AD85BE85A254BE4F1D9281E08D938D937F
:103980001D928BE08D931D921C921296EFE3AE2E4A
:10399000B12CC12CD12CFD01A192B192C192D19236
:1039A000DF014082518262827382AA5CB140BE878D
:1039B000AD877EEFE72E71E0F72EEA0EFB1E65E580
:1039C000862E6AEA962EF7019182808201E010E04D
:1039D00020E030E040E050E0BD01832D0E940A135A
:1039E0008C01892B09F005C140917805509179052A
:1039F00060E070E08D859E850E94168A8BEEAD8515
:103A0000BE858C9388E5FD01818380E982830DE486
:103A1000038393E5948384E485831FE4168397836B
:103A200085E380878EE2818780E3828780E092E071
:103A300094878387258680E290E09787868782E057
:103A4000808B128A118A148A138A88EF858B178AD1
:103A5000168A8FE390E0918F808F8FEF90E0938FA5
:103A6000828FED85FE85A48EB58EC68ED78E40A240
:103A700051A262A273A289859A85AB85BC8584A375
:103A800095A3A6A3B7A311A610A613A612A652E04B
:103A9000A52EB12CC12CD12CED85FE85A4A6B5A6F2
:103AA000C6A6D7A681E090E091AB80AB86E090E01F
:103AB00093AB82ABE05CFF4F1082329689E2819338
:103AC000FE87ED876D817E818F819885A3019201AC
:103AD0000E94388AAD85BE856D937D938D939D93AD
:103AE0008EE48D931D9390E29D938D9321E42D930D
:103AF0000D9385E48D939D939D939D939D9386E473
:103B00008D932D9384E58D9383E38D9382E38D9341
:103B10009D939D939C93A955B040BE87AD87F701B7
:103B20009182808201E010E02FE330E040E050E03D
:103B3000BD01832D0E940A138C01892B09F059C005
:103B400001E010E025E430E040E050E06D857E8546
:103B5000832D0E940A13892B09F0E7C04091780554
:103B60005091790560E070E08D859E850E94168AEF
:103B700081EA9FEFAFEFBFEF480E591E6A1E7B1E12
:103B800082E592E5A1E6B1E4ED85FE85808391832F
:103B9000A283B383EC51FE4F82E792E7A1E4B1E642
:103BA00081939193A193B193FE87ED87C301B201F5
:103BB00029813A814B815C810E948A8AAD85BE85CC
:103BC0002D933D934D935D93FD01A082B182C282FE
:103BD000D382EC5EF140FE87ED87D7018D929C92F7
:103BE00020E430E040E050E0BF01832D0E940A1342
:103BF0008C010115110509F086C04091780550919E
:103C0000790560E070E08D859E850E94168A2D857D
:103C10003E8588EF9FEFAFEFBFE0F901819391936D
:103C2000A193B1939F018FEF9FEFAFEFBFE0ED85C1
:103C3000FE8584839583A683B783F9018483958366
:103C4000A683B78301E010E02FE530E040E050E0CC
:103C50006D857E85832D0E940A138C01892B09F0C6
:103C600052C0C984DA84EB84FC848FE590E0A0E044
:103C7000B0E0C80ED91EEA1EFB1E01E010E0A7014D
:103C800096016D857E85832D0E940A13892B09F08C
:103C90004CC0409178055091790560E070E08D85C9
:103CA0009E850E94168A95E4AD85BE859C9324E589
:103CB000FD01218388E48283938382E584838EE4FB
:103CC000858385E58683278380E280878187828755
:103CD00088E08387158A148A138E128EED85FE85FF
:103CE000148E158E168E178E89859A85AB85BC85A8
:103CF000C80ED91EEA1EFB1EA7019601BF01832D27
:103D00000E940A138C018D859E850E946C590E9429
:103D10009918012B81F4832D0E942F1A009769F0C6
:103D20000AC06050704139F470CD8D859E850E9427
:103D30006C590E9499188FEF9FEF2E960FB6F8944A
:103D4000DEBF0FBECDBFDF91CF911F910F91FF90CE
:103D5000EF90DF90CF90BF90AF909F908F907F902B
:103D60006F905F904F903F902F9008950F931F9307
:103D7000CF93DF938C0180E092E00E94F958EC0130
:103D8000892B31F0802F0E942F1ACE010E946C598E
:103D9000DF91CF911F910F910895EF92FF920F93B2
:103DA0001F93CF93DF93FC0180916C0590916D057B
:103DB0000097A9F58281863409F03FC08381813460
:103DC000E1F584818435C9F5848595850797A9F542
:103DD00037C041E25AE166EB7EE180E090E00E946C
:103DE0007C158C01892B19F00EEF1FEF14C0B70161
:103DF00080E090E00E94C614C0E0D0E08C2F0E94CA
:103E00002F1A2196C330D105C9F781E090E0909335
:103E10006D0580936C05C7010E946C591CC0019709
:103E200061F48281863449F483818D3431F4848154
:103E3000803319F400E010E00EC00FEF1FEF0BC04D
:103E40000E94941880E092E00E94F9587C01892B2E
:103E500009F0BFCFEFCFC801DF91CF911F910F9134
:103E6000FF90EF9008952F923F924F925F926F9242
:103E70007F928F929F92AF92BF92CF92DF92EF92FA
:103E8000FF920F931F93CF93DF93CDB7DEB7A69723
:103E90000FB6F894DEBF0FBECDBF9EA38DA34B011E
:103EA00080916C0590916D05892B21F48DA19EA1C7
:103EB0000E94CD1E0E949E1860906E0570906F0546
:103EC0008DA19EA1009709F422C1FC018481803359
:103ED0000CF41DC182330CF41DC1863409F017C1E6
:103EE00019C1F4018081882309F411C18AE190E0AD
:103EF0000E94F9585C018091860590918705A091F8
:103F00008805B09189050097A105B10509F41AC18A
:103F1000A114B10409F4FBC0F40180818E3209F4CC
:103F2000E7C08AE1F50111928A95E9F720908205B0
:103F3000309083054090840550908505F401808180
:103F40008F3209F006C102C1FFE3EF16F1040CF055
:103F500003C183010E0D1F1D992787FD90950E94B7
:103F6000C78AF80180830894E11CF11C0894811C25
:103F7000911CF40180818F3209F4D2C08C3509F490
:103F8000CFC0882309F7CCC06EE270E0C3010E9465
:103F90001D8A009721F409301105D8F50BC0DC010A
:103FA0001196FD0101900020E9F73197EA1BFB0B08
:103FB000349778F58E010B5F1F4F80E2F801119264
:103FC0008A95E9F748E050E060E270E0C8010E949D
:103FD000168A43E050E060E270E0CE010D960E9448
:103FE000168AD801F301930104C08D932F5F3F4FD0
:103FF000319680818E3219F08823B9F70DC0F9010E
:10400000DE011D9601C08D93818131968823D9F7F9
:1040100003C021E030E002C020E030E0F401808104
:104020008F3209F448C08C3509F445C0882309F063
:104030005FC080E2888B8091770580FD8DC084E72A
:10404000882E85E0982E69017E010894E11CF11C00
:1040500092018101A301BE016B5F7F4FC4010E94E9
:10406000A0169B01AC01611571058105910509F44C
:1040700073C089819A81AB81BC81F5018083918372
:10408000A283B38324833583468357832087318774
:10409000428753871486158616861786108A118ADA
:1040A000128A138A918E808E158A148A178A168A2C
:1040B00080E090E053C080E1888B8091770580FD9F
:1040C0004BC069017E010894E11CF11C9201810141
:1040D000A301BE016B5F7F4F84E795E00E94A016AD
:1040E0001B012C016115710581059105A9F12EC0F7
:1040F000C5010E946C590BC086E090E00E94F958FF
:104100008C01009771F5C5010E946C5933C00FEF07
:104110001FEF30C080917605882309F0E2CEF7CFFB
:10412000E60CF71CF7011082F30101900020E9F77B
:104130008F0101501040061917090D30110508F0C4
:1041400068CF22CFA114B10499F6E1CF0894811C65
:10415000911CEE24FF240DCF81E090E0019761F6E1
:10416000C7CFFC01118210828DA19EA1938382830F
:10417000B582A4820E949918C801A6960FB6F89439
:10418000DEBF0FBECDBFDF91CF911F910F91FF908A
:10419000EF90DF90CF90BF90AF909F908F907F90E7
:1041A0006F905F904F903F902F9008958FEF9FEF0B
:1041B00008952F923F924F925F926F927F928F92CB
:1041C0009F92AF92BF92CF92DF92EF92FF920F93A6
:1041D0001F93CF93DF935C016B014A0129013801E2
:1041E000170181E090E00E940912C0E0D0E0760162
:1041F000850109C0F80181918F010E94FE11F7012C
:1042000081937F012196C815D905A4F3C0E0D0E0C1
:104210007301820109C0F80181918F010E94FE1192
:10422000F70181937F012196C215D305A4F30E9463
:10423000E61180E090E0DF91CF911F910F91FF9008
:10424000EF90DF90CF90BF90AF909F908F907F9036
:104250006F905F904F903F902F900895EF92FF9254
:104260000F931F93CF93DF93CDB7DEB722970FB68F
:10427000F894DEBF0FBECDBF87ED89838FEF8A83B1
:10428000EE24FF2400E010E020E030E042E050E0C7
:10429000CE010196BC010E94D920892B19F08FEF25
:1042A00090E002C08A81992722960FB6F894DEBF6B
:1042B0000FBECDBFDF91CF911F910F91FF90EF9077
:1042C00008950F931F930E942E210E942E21082FE4
:1042D00060E070E02091DC053091DD050EC06F5F7D
:1042E0007F4F808580239185891739F48AE0189F54
:1042F00090011124295F3C4F18C0162F462F5527D7
:10430000FA01EE0FFF1FCA01A3E0880F991FAA95BB
:10431000E1F7E80FF91FE95FFC4F80819181A281ED
:10432000B3810097A105B105D1F63093DD05209347
:10433000DC05CA011F910F910895EF92FF920F9330
:104340001F93CF93DF937B018C01EA0119C0209763
:1043500031F461E070E080E090E00E94D95E089462
:10436000E108F108010911098FEFE8168FEFF8064F
:104370008FEF08078FEF180719F48FEF9FEF06C034
:104380000E942E2187FFE3CF80E090E0DF91CF9164
:104390001F910F91FF90EF9008955F926F927F921F
:1043A0008F929F92AF92BF92CF92DF92EF92FF9245
:1043B0000F931F93CF93DF93582E4A015B01E901BE
:1043C00038018701293031051CF08FEF9FEF23C0A2
:1043D000A90160E070E08EED95E00E94168A50928F
:1043E000DE0581149104A104B10469F0C501AA2776
:1043F000BB278093DF05BB27AB2D9A2D892D80939A
:10440000E0058092E10576019301AE016EED75E065
:10441000CB010E94D920DF91CF911F910F91FF9086
:10442000EF90DF90CF90BF90AF909F908F907F9054
:104430006F905F9008958F929F92AF92BF92CF92AC
:10444000DF92EF92FF920F931F93CF93DF934B0175
:104450005C018A016901C9010E94B884EC010097DE
:1044600019F40FEF1FEF36C07C0124E030E040E08C
:1044700050E060E070E084E80E94CD21892B29F5AE
:10448000E091DC05F091DD05068004C0880C991CE4
:10449000AA1CBB1C0A94D2F7CC24DD24EE24FF24F2
:1044A00000E010E024E030E0B501A40183E80E94C0
:1044B000CD21892B51F441E050E068EE73E080E0BB
:1044C00090E00E949D218C0102C00FEF1FEFCE01F2
:1044D0000E94B584C801DF91CF911F910F91FF9089
:1044E000EF90DF90CF90BF90AF909F908F90089506
:1044F000CF92DF92EF92FF920F931F93E091DC0532
:10450000F091DD05068004C0660F771F881F991F94
:104510000A94D2F769017A018A0128E030E0AB0100
:10452000BC0188EE0E94CD211F910F91FF90EF906A
:10453000DF90CF900895CF92DF92EF92FF920F938A
:104540001F93AA27BB27CC24DD24EE24FF2400E000
:1045500010E024E030E0AC01BD0181E80E94CD21F3
:104560001F910F91FF90EF90DF90CF90089560958D
:104570007095809590952091E6053091E7054091E2
:10458000E8055091E9052623372348235923209332
:10459000E6053093E7054093E8055093E90580E090
:1045A00090E00895AF92BF92CF92DF92EF92FF9288
:1045B0000F931F93CF93DF93CDB7DEB722970FB63C
:1045C000F894DEBF0FBECDBF9B015A01492F55277E
:1045D00049838A83CC24DD247601850142E050E0C2
:1045E000BE016F5F7F4F87E50E9455728A159B055C
:1045F00019F480E090E002C08FEF9FEF22960FB693
:10460000F894DEBF0FBECDBFDF91CF911F910F9108
:10461000FF90EF90DF90CF90BF90AF900895AF9252
:10462000BF92CF92DF92EF92FF920F931F93CF939F
:10463000DF93CDB7DEB722970FB6F894DEBF0FBE7B
:10464000CDBF9B015A0119828A83CC24DD247601D7
:104650008A0142E050E0BE016F5F7F4F8FE60E940B
:1046600055728A159B0519F480E090E002C08FEF27
:104670009FEF22960FB6F894DEBF0FBECDBFDF913D
:10468000CF911F910F91FF90EF90DF90CF90BF904F
:10469000AF9008950F931F93CF93DF93CDB7DEB7FD
:1046A00021970FB6F894DEBF0FBECDBF8C0141E05D
:1046B00050E0BE016F5F7F4F8FE30E940F23892B75
:1046C000E9F489819927AA27BB272091E605309133
:1046D000E7054091E8055091E905822B932BA42B27
:1046E000B52B8093E6059093E705A093E805B0937A
:1046F000E905F80180839183A283B3838091E60565
:104700009091E70521960FB6F894DEBF0FBECDBF9E
:10471000DF91CF911F910F910895CF93DF93CDB784
:10472000DEB724970FB6F894DEBF0FBECDBF80E092
:104730000E945171009721F4CE0101960E944A23F4
:1047400024960FB6F894DEBF0FBECDBFDF91CF9198
:104750000895EF92FF920F931F93CF93DF93CDB7FE
:10476000DEB728970FB6F894DEBF0FBECDBF8C0121
:1047700048E050E0BE016F5F7F4F80E30E940F234F
:104780007C01892B09F073C02981822F82958F705B
:104790006AE0869FC00111242F70820F911DD801FD
:1047A0008D939C932A81822F82958F70869FC00162
:1047B00011242F70820F911DF801938382832B8126
:1047C0003327C9018F739070B4E095958795BA959A
:1047D000E1F7AC01A3E0440F551FAA95E1F7880F5C
:1047E000991F840F951F2F703070820F931F958330
:1047F00084832C81822F82958F70869FC001112423
:104800002F70820F911D978386832D81822F829531
:104810008F70869FC00111242F70820F911D019708
:10482000918780878E81282F22952F70269FA00147
:10483000112499278F7090708C599F4F480F591FE2
:10484000538742872885822F82958F70869FC0016B
:1048500011242F70820F911D4A9724F04C595F4FFD
:10486000538742878F819927F80195878487C701ED
:1048700028960FB6F894DEBF0FBECDBFDF91CF9163
:104880001F910F91FF90EF900895AF92BF92CF923A
:10489000DF92EF92FF920F931F93CF93DF93CDB7E9
:1048A000DEB723970FB6F894DEBF0FBECDBF1982D7
:1048B0002FE32A835E010894A11CB11C892BA1F06F
:1048C00082E08B83CC24DD24760100E010E020E040
:1048D00030E043E050E0B5018FE60E94557200974A
:1048E00089F486E08B8306C01B82CC24DD2476010C
:1048F00000E010E020E030E043E050E0B5018FE65A
:104900000E94557223960FB6F894DEBF0FBECDBF3E
:10491000DF91CF911F910F91FF90EF90DF90CF909B
:10492000BF90AF900895AF92BF92CF92DF92EF9277
:10493000FF920F931F93CF93DF93CDB7DEB72197ED
:104940000FB6F894DEBF0FBECDBF13E1A12EB12C80
:104950000FC061E070E080E090E00E94D95E0894B2
:10496000A108B108A114B10419F48FEF9FEF14C08E
:10497000CC24DD24760101E010E09E012F5F3F4F43
:1049800040E050E060E070E087E50E9455728F5F84
:104990009F4FF9F280E090E021960FB6F894DEBFC9
:1049A0000FBECDBFDF91CF911F910F91FF90EF9080
:1049B000DF90CF90BF90AF9008952F923F924F928B
:1049C0005F926F927F928F929F92AF92BF92CF929F
:1049D000DF92EF92FF920F931F93CF93DF933C01EF
:1049E0004A012B0100E010E046C0C3018F739070B4
:1049F00020E430E0281B390B54012815390508F450
:104A0000590182E0282E312C2A0C3B1CC1010E9446
:104A1000B884EC01892BA1F1872D992788836982BD
:104A2000A501B201CE0102960E940D8A81E090E0BC
:104A30000E9445248C01892B31F5CC24DD2476019C
:104A400000E010E020E030E0A101BE0187E50E9417
:104A500055728C01CE010E94B58401151105B1F487
:104A60000E9493248C01892B89F48A189B086A0C74
:104A70007B1C4A0C5B1C8114910409F0B6CF06C064
:104A80000FEF1FEF03C0CE010E94B58480E090E0DD
:104A90000E944524C801DF91CF911F910F91FF9093
:104AA000EF90DF90CF90BF90AF909F908F907F90CE
:104AB0006F905F904F903F902F9008958F929F92AC
:104AC000AF92BF92CF92DF92EF92FF920F931F931C
:104AD000CF93DF934C015B01EA0181E090E00E94FB
:104AE00045248C01892BC1F4CC24DD24760100E01F
:104AF00010E020E030E0AE01B5018FE60E94557273
:104B00008C01892B29F4892819F00E9493248C01A7
:104B100080E090E00E944524C801DF91CF911F9171
:104B20000F91FF90EF90DF90CF90BF90AF909F904C
:104B30008F900895EF92FF920F931F93CF93DF937F
:104B4000CDB7DEB72A970FB6F894DEBF0FBECDBF44
:104B50008B017A012AE0FE01319611922A95E9F73C
:104B600023E0880F991F2A95E1F78A836115710563
:104B700009F47AC040FF12C0FB0140815181842FAB
:104B80006AE00E94578A282F2295207FCA016AE096
:104B900070E00E94778A280F20682B83E1FE12C004
:104BA000F80142815381842F6AE00E94578A282F9E
:104BB0002295207FCA016AE070E00E94778A280F60
:104BC00020682C83E2FE12C0F80144815581842FB5
:104BD0006AE00E94578A282F2295207FCA016AE046
:104BE00070E00E94778A280F20682D83E3FE12C0B0
:104BF000F80146815781842F6AE00E94578A282F46
:104C00002295207FCA016AE070E00E94778A280F0F
:104C100020682E83E4FE14C0F80140855185842F5E
:104C20008F5F6AE00E94578A282F2295207FCA0151
:104C300001966AE070E00E94778A280F20682F832F
:104C4000E7FE12C0F80144855585842F6AE00E9472
:104C5000578A282F2295207FCA016AE070E00E94BF
:104C6000778A280F206829874AE050E0BE016F5FED
:104C70007F4F81E090E00E945E252A960FB6F8945F
:104C8000DEBF0FBECDBFDF91CF911F910F91FF907F
:104C9000EF900895EF92FF920F931F93CF93DF93BE
:104CA000CDB7DEB728970FB6F894DEBF0FBECDBFE5
:104CB0007B018A01FA011182108292E1FB011192BB
:104CC0009A95E9F748E050E0BE016F5F7F4F880F8B
:104CD000880F880F0E940F23BC01892B09F09FC009
:104CE000298127FF20C0F801808191818160918313
:104CF00080833327C9018F779070F4E0959587956D
:104D0000FA95E1F7AC01E3E0440F551FEA95E1F7AE
:104D1000880F991F840F951F2F703070820F931F7B
:104D2000F701918380833A8137FF13C0F8018081B6
:104D30009181826091838083832F82958F702AE096
:104D4000829FC00111243F70830F911DF70193834F
:104D500082832B8127FF20C0F801808191818460AC
:104D6000918380833327C9018F779070A4E0959554
:104D70008795AA95E1F7AC01F3E0440F551FFA952A
:104D8000E1F7880F991F840F951F2F703070820FE5
:104D9000931FF701958384833C8137FF13C0F8018B
:104DA00080819181886091838083832F82958F7029
:104DB0002AE0829FC00111243F70830F911DF701EB
:104DC000978386833D8137FF14C0F80180819181EC
:104DD000806191838083832F82958F702AE0829FE8
:104DE000C00111243F70830F911D0197F701918736
:104DF00080873F8137FF13C0F801808191818068EF
:104E000091838083832F82958F702AE0829FC001D7
:104E100011243F70830F911DF70195878487CB0183
:104E200028960FB6F894DEBF0FBECDBFDF91CF91AD
:104E30001F910F91FF90EF9008950F931F93CF93C1
:104E4000DF93CDB7DEB72A970FB6F894DEBF0FBE5B
:104E5000CDBF8C018AE0FE01319611928A95E9F767
:104E60000115110509F481C080E38A83F8014081AE
:104E70005181842F6AE00E94578A282F2295207F33
:104E8000CA016AE070E00E94778A280F2B83428172
:104E90005381842F6AE00E94578A282F2295207F11
:104EA000CA016AE070E00E94778A280F2C8344814F
:104EB0005581842F6AE00E94578A282F2295207FEF
:104EC000CA016AE070E00E94778A280F20682D836B
:104ED00046815781842F6AE00E94578A282F2295A5
:104EE000207FCA016AE070E00E94778A280F2E8333
:104EF00040855185842F8F5F6AE00E94578A282F52
:104F00002295207FCA0101966AE070E00E94778AAC
:104F1000280F2F8342855385443651059CF0842FFA
:104F200084566AE00E94578A282F2295207FCA0162
:104F3000845690406AE070E00E94778A280F2887A4
:104F400080E20FC0842F6AE00E94578A282F2295A2
:104F5000207FCA016AE070E00E94778A280F2887C4
:104F600089E18A87F801848589874AE050E0BE019B
:104F70006F5F7F4F80E090E00E945E252A960FB61B
:104F8000F894DEBF0FBECDBFDF91CF911F910F917F
:104F900008950F931F93E091EA05F091EB051995A1
:104FA0001F910F9108950E9462410895CF93DF935E
:104FB0000E94DC3EEC01181619065CF080E298E0D5
:104FC0009F938F9386ED8F930E942B090F900F90E4
:104FD0000F90CE01DF91CF9108950F931F938A0117
:104FE0000E94CA3F8017910719F081E698E002C03D
:104FF0008FE398E09F938F9386ED8F930E942B0908
:105000000F900F900F901F910F9108950F931F9382
:105010008C0187E593E00E942046AB01BC0120E5AE
:1050200030E0C8010E949242892B59F08DE798E048
:105030009F938F9386ED8F930E942B090F900F9073
:105040000F901F910F910895CF92DF92EF92FF92F0
:105050000F931F93CF93DF93CDB7DEB728970FB68B
:10506000F894DEBF0FBECDBF7C011D821E821F8261
:10507000188619821A821B821C8280EF91EFAFEF93
:10508000BFEF80939E0490939F04A093A004B093DD
:10509000A10480EE98E09F938F9386ED8F930E94FA
:1050A0002B0985E693E00E94204669837A838B83EF
:1050B0009C8304E110E00F900F900F9085E0C82EC4
:1050C000D12CCC0EDD1EB601CE0101960E94AC3C67
:1050D000892BC1F068EE73E080E090E00E94D95E19
:1050E0001F930F9384EB98E09F938F9386ED8F939C
:1050F0000E942B09015010400F900F900F900F90BD
:105100000F90E1F6C6010E94FE818C01FC018081B6
:1051100091819F938F93828193819F938F938481B9
:1051200095819F938F9387E998E09F938F9386ED66
:105130008F930E942B09F801A481B581C280D3808E
:105140006081718146815781208531858285938573
:10515000F70193878287318720875783468371833E
:105160006083D382C282B583A4838DB79EB709962C
:105170000FB6F8949EBF0FBE8DBFC70128960FB61D
:10518000F894DEBF0FBECDBFDF91CF911F910F917D
:10519000FF90EF90DF90CF900895AF92BF92CF92A3
:1051A000DF92EF92FF920F931F93CF93DF93CDB7D0
:1051B000DEB726970FB6F894DEBF0FBECDBFDE0177
:1051C0001196E9E9F3E086E001900D928150E1F754
:1051D00082E793E00E9420465B016C0180E893E047
:1051E0000E9420467B018C0140E060E070E08AE193
:1051F00094E00E945762892B19F080E090E010C083
:10520000A6019501BE016F5F7F4F8EE893E00E947B
:105210008248892B19F081E090E002C082E090E0A2
:1052200026960FB6F894DEBF0FBECDBFDF91CF91AB
:105230001F910F91FF90EF90DF90CF90BF90AF90B4
:1052400008958F929F92AF92BF92CF92DF92EF928A
:10525000FF920F931F93CF93DF93CDB7DEB72697BF
:105260000FB6F894DEBF0FBECDBF40E060E070E047
:105270008AE194E00E945762892B61F083E599E00E
:105280009F938F9386ED8F930E942B090F900F9021
:105290000F9037C020E030E040E050E060E070E088
:1052A0008EE893E00E943E2B892B59F1DE01119686
:1052B000E3E9F3E086E001900D928150E1F720E010
:1052C00030E040E050E04E010894811C911CB40194
:1052D0008EE893E00E943E2B892B99F082E793E0C1
:1052E0000E9420465B016C0180E893E00E9420460A
:1052F0007B018C01A6019501B4018EE893E00E9428
:10530000824821E030E040E050E06FEF7FEF8FEF28
:105310009FEF0E94583A892B71F08BE399E09F939D
:105320008F9386ED8F930E942B0983E090E00F907E
:105330000F900F9022C08EE199E09F938F9316ED0E
:105340001F930E942B0985E099E09F938F931F93F1
:105350000E942B0989EC97E20E944E3A9093EB054C
:105360008093EA0584E090E02DB73EB72A5F3F4F77
:105370000FB6F8943EBF0FBE2DBF26960FB6F89419
:10538000DEBF0FBECDBFDF91CF911F910F91FF9078
:10539000EF90DF90CF90BF90AF909F908F90089547
:1053A0008093B20308950E94576020E033E040E00C
:1053B00050E06AEF75E08DEA93E00E9453658EEF4E
:1053C0000E94FD5C0E94815D0E94C85C2091B20336
:1053D0002F3FC1F393B783B7817F822B83BF83B7FE
:1053E000816083BF889583B78E7F83BF83B7817FBA
:1053F0009E70892B83BFE6CFCF93DF93DC01FC0146
:1054000087E3819393E0ED019983DF01119681E0B9
:105410008183FD01918386E0828385E090E0DF91C6
:10542000CF9108958091F105992708958091F20513
:105430009091F3051092F3051092F205089520E083
:1054400030E08091F105853011F421E030E0C901B0
:105450000895DF92EF92FF920F931F93CF93DF9304
:10546000D62E79018A010E943B62EC01892B51F012
:105470008B85833039F4EF85F889309719F0808176
:10548000863049F081E190E09093F3058093F20536
:105490008FEF9FEF35C00E942F5F6093FC057093E4
:1054A000FD058093FE059093FF05E092F805F092CC
:1054B000F9050093FA051093FB05D092F105809150
:1054C000EF059091F005892B69F420E032E0AE0100
:1054D00060EB7FE283EB93E00E9453659093F005CD
:1054E0008093EF0584EF95E00E946E6140E050E00C
:1054F00060E070E086EF95E00E94C16180E090E09E
:10550000DF91CF911F910F91FF90EF90DF90089561
:10551000FC019A01AB018091F105882349F083E0F9
:1055200090E09093F3058093F2058FEF9FEF08953D
:1055300068E0CF010E94292A0895FC019A01AB017D
:105540008091F105853049F083E090E09093F30578
:105550008093F2058FEF9FEF089569E0CF010E94DD
:10556000292A0895CF92DF92EF92FF920F931F9313
:10557000CF93DF93FC0184E292E0DF011D9201975B
:10558000E9F781E08083818386E08283DF015C9696
:10559000CEE3D9E009900D928150E1F72483358361
:1055A000468357830C2CCD2CD02CD186C086E48624
:1055B000F58606871787DF01A451BF4F93E6FD01EB
:1055C000919382E8ED018983DF01119683E5818360
:1055D000FD013196ED019983DF01119685E3818309
:1055E00081E0FD018183628387E090E0DF91CF91CC
:1055F0001F910F91FF90EF90DF90CF900895CF9380
:10560000DF93CDB7DEB722970FB6F894DEBF0FBE9B
:10561000CDBFDC015A834983FC0161939F0182E085
:10562000FD01818389819A81082E892F902DF901AE
:105630009283818384E090E022960FB6F894DEBFD7
:105640000FBECDBFDF91CF9108950F931F93CF93DE
:10565000DF93DC01CA01022FFD016193ED01298373
:105660001127A801BC01CF0101960E940D8AC80133
:105670000296DF91CF911F910F9108954F925F9203
:105680006F927F928F929F92AF92BF92CF92DF9252
:10569000EF92FF920F931F93CF93DF93CDB7DEB7B7
:1056A00060970FB6F894DEBF0FBECDBF3C012B0153
:1056B0002D873E874F87588B0E943B625C01009785
:1056C00069F0FC018385833049F4C784D088C11414
:1056D000D10421F0F6018081863019F081E190E05B
:1056E00039C08E01095F1F4FF80111928A95E9F7C1
:1056F00046E050E06FEF70E04E010894811C911C71
:10570000C4010E94168A76010894E11CF11C46E04F
:1057100050E0B801C7010E94008A892B41F046E0A1
:1057200050E0B401C7010E94008A892B31F5411471
:10573000510449F0AEE3B9E0F20186E001900D9228
:10574000815069F0FBCFC3010E94AB48892B39F02F
:1057500082E090E09093F3058093F20599C0F70101
:10576000AEE3B9E086E00D9001928150E1F764EF7D
:1057700071E080E090E00E94D95E20915009309164
:1057800051094091520950915309E0904809F09015
:10579000490900914A0910914B09DA01C9018E218A
:1057A0009F21A023B1230097A105B10549F02093C3
:1057B000440930934509409346095093470958C01E
:1057C0002D853E854F85588961E0C3010E94292AB5
:1057D000892B09F05DC08091F105853031F5E091AC
:1057E000ED05F091EE05C584D684E784F088058147
:1057F0001681278130854181528163817481C50181
:105800000E94E246E091ED05F091EE05E588F6880C
:105810000789108D218932894389548960E070E0BD
:1058200080E090E00E94D53630C0F60187819085F7
:10583000A185B2850097A105B10539F520914409EC
:10584000309145094091460950914709E090480937
:10585000F090490900914A0910914B09DA01C901F8
:105860008E219F21A023B1230097A105B10581F0CE
:10587000A0904C09B0904D09C0904E09D0904F09AE
:105880006EE379E0C3010E94DD4780E090E002C052
:105890008FEF9FEF60960FB6F894DEBF0FBECDBFBF
:1058A000DF91CF911F910F91FF90EF90DF90CF90FC
:1058B000BF90AF909F908F907F906F905F904F9030
:1058C0000895CF93DF93EC01892B79F089A59AA5F0
:1058D000009711F00E94B5848BA59CA5009711F04C
:1058E0000E94B584CE010E94B584DF91CF910895C6
:1058F000EF92FF920F931F93CF93DF938C017B0165
:10590000EA01DC018D919C91009711F00E94B58411
:10591000CE0101960E94B884F8019183808300979C
:1059200061F0209721F0AE01B7010E940D8AD801E5
:10593000ED91FC91EC0FFD1F1082DF91CF911F9133
:105940000F91FF90EF9008954F925F927F928F9208
:105950009F92AF92BF92CF92DF92EF92FF920F93FE
:105960001F93CF93DF938C017B018DE290E00E9427
:10597000B884EC01009709F420C12C018DE2FE01EE
:1059800011928A95E9F780EC98EAA0E0B0E08DA347
:105990009EA3AFA3B8A7F80180899189A289B38992
:1059A00089839A83AB83BC8380EFC82ED12CC00E31
:1059B000D11E00E1A02E0FEFB02EAE0CBF1CEAC02E
:1059C000662339F40894C11CD11C0894A108B108BD
:1059D000E1C0F6017180872C9924A814B9040CF455
:1059E000E9C0653341F4F1E07F1609F0E3C0F60148
:1059F00082818883C3C06C3039F4B6016E5F7F4FFB
:105A0000A401CE01899608C06F3049F4B6016E5FDB
:105A10007F4FA401CE018B960E94782CAFC0F3E09B
:105A2000F71508F0ABC0F601228183819927AA27D8
:105A3000BB27EE24F82E092F1A2FE20EF11C011DB0
:105A4000111D2581332744275527522F44273327FB
:105A5000222784819927AA27BB27DC019927882739
:105A6000280F391F4A1F5B1FE20EF31E041F151F6C
:105A7000613029F4ED82FE820F8318877FC06C317C
:105A800029F4E986FA860B871C8778C0633029F4ED
:105A9000ED86FE860F87188B71C0663009F041C015
:105AA000E98AFA8A0B8B1C8BF7E0F71508F066C0C1
:105AB000F60126813327442755272D8B3E8B4F8BAC
:105AC000588F87819927AA27BB27BA2FA92F982FEC
:105AD0008827820F931FA41FB51F8D8B9E8BAF8BC2
