:100000000C9469050C94DB050C94DB050C94DB0562
:100010000C94DB050C949C660C94B2790C94586794
:100020000C94DB050C94DB050C94DB050C94DB05D0
:100030000C94DB050C9444680C94DB050C94DB05F4
:100040000C94DB050C94DB050C94DB050C94DB05B0
:100050000C94DB050C94DB050C94DB050C94CE674B
:100060000C94DB050C94BC730C94DB050C94377476
:100070000C94DB050C94DB050C94DB050C94DB0580
:100080000C94DB050C94DB050C94DB050C94DB0570
:100090000C94B1740C94DB050C942C750C94427385
:1000A0000C94DB050C94DB050C94DB050C94DB0550
:1000B0000C94DB050C94DB050C94DB050C94DB0540
:1000C0000C94DB050C94DB050C94DB05BF69086A16
:1000D0004F6A756A896AB16AB96ADE6ABC69006B7F
:1000E000476B4D6B536B596B766B5F6B766BAC6B81
:1000F000816B966B7265636569766564205B2573B9
:100100005D007265636569766564205B25645D00EA
:10011000436F6E6E656374696E6720636C69656EAC
:10012000740045746865726E6574205374617274EE
:100130007570204D6573736167653A205B25645D5A
:10014000005254432074696D65205B253032643A57
:10015000253032643A253032645D00770075617273
:100160007430000A000A23446562756720000A2380
:10017000496E666F2020000A234E6F746963200069
:100180000A235761726E2020000A234572722020D4
:1001900020000A23437269742020000A23416C6501
:1001A000727420000A23456D65726720003F3F206E
:1001B0003C444D4B3E200057443A200056533A20D1
:1001C0000056453A200055543A200055443A200044
:1001D00055413A200053523A200053503A200053E0
:1001E000473A200053453A200053543A20005254D5
:1001F0003A200052433A2000504C3A200050413AF5
:1002000020004D443A20004D4D3A20004D453A2003
:100210000053593A20004C473A20004C453A200000
:100220004B423A2000494E3A200048543A200046BA
:100230004C3A200046413A200044503A2000434DB9
:100240003A200043483A200041553A20003080309F
:1002500000170780B0173C06001750003F24000627
:1002600000162012008F570000CE101229009900AE
:10027000004D0080404C180600D7960028550D0010
:1002800000480D0600505B0930420080B001801428
:100290004240BC182840C71336423C003E03B81405
:1002A00000031B1500C259D66F24000036039812B4
:1002B00028D55700004D000028402BF33624004C71
:1002C00080103E1438103E0A78133E0DB8033E05E8
:1002D000F806009555093015141B00D4FF0300CE15
:1002E000FF01000A000024CE168AB5240092F20015
:1002F000945261240002FE2400B24824004A4501C1
:10030000B6F33605D8F3360D98F0360A58002000BB
:1003100000F0361418618013362400123E17B8120C
:100320003E1538053E14B82536240000000A80101A
:100330003E03B8944105B8113E2400113E07B8149D
:100340003E1278143E0DF8033E0EF80600510000F0
:1003500028D5240000240088B81200046405040095
:100360000024000028582194402400002402210089
:100370000024009864030856FE2400B6482400D6E2
:100380004D2400103A24C0F03224C056FE2400B69A
:10039000482400D64D24008443834496638C88000F
:1003A000F4D540003D2480060091003F00C3FE06C6
:1003B0000053000131248060FE2400BE4824003434
:1003C000A6030C244324008442022C0600110000E2
:1003D00028D82400312480060011500039248006DA
:1003E00000110000314C9884424C9000F488400089
:1003F00028452800002400F03C40380930413809E5
:1004000030103800200000000088270930D01B0081
:100410002880280930811BF334CC1BF3360ED8F426
:10042000360DD8F4361258F1360798F1360518F023
:1004300036039805341490F3362400F2361518006C
:10044000200000F2361798AD80123E17B8123E1504
:1004500038053E14B81536240000000A80103E020C
:1004600078103E04F8113E1078143E12781329805B
:10047000C9143E24C0132980C988404C1800F405D3
:10048000400000C018006424000000C01B00289534
:1004900030300010030028803F01382440006424DD
:1004A000000000401A002855370600D05500000310
:1004B0007D84B84C1809300538093000008AFF24C3
:1004C000001D29007BB248240000004118060010DE
:1004D000508A4044B800290013884024000030CCE2
:1004E0001B14602400300051030028D5360000247E
:1004F00000060011000031240030005103003824B0
:10050000000028803F01392440006424003000D0DE
:10051000030028553F0000037D0600D05584B84CE9
:100520001809300538093000008AFF24001D290011
:100530007BB24824008A40CC9B000041180028551B
:100540003B060010509A68240000302400146024F8
:1005500000300092030028853E060091000600113D
:1005600000000052180600530080B80024060091D5
:10057000000438248030009203003B240001392419
:10058000400028803F013A24400138244080B8D3FD
:100590001BF4361258F1361058F03604D8F03602F3
:1005A0005805341490F3362400F236151800200054
:1005B00000F236179830000000000045786974009A
:1005C00000000053EF6E000000004578697453EF9F
:1005D0006E4DEA6D5400000000070606060606068A
:1005E00006060606060606060606060606060606AB
:1005F000060606060606060606060606060606069B
:10060000060606060606060606060606060606068A
:100610000606070606060606060606060606060679
:10062000060606060606060606060606060606066A
:100630000606060606060606060606060607060659
:10064000060606060606060606060606060606064A
:10065000060606060606060606060606060606063A
:10066000060606060606060606060606060606062A
:10067000060606060606060606060606060606061A
:10068000060606060606060606060606060606060A
:1006900006060606060606060606060606060606FA
:1006A00006060606060606060606060606060606EA
:1006B00006060606060606060606060606060606DA
:1006C00006060606060606060606060606060606CA
:1006D00006060606060607060606060606060606B9
:1006E00006060606060606060606060606060606AA
:1006F000060606060606060606060606060606069A
:100700000606060606060606060606060606060689
:100710000606060606060606060606060606060679
:100720000606060606060606060606060606060669
:100730000606060606060606060606060606060659
:100740000606060606060606060606060606060649
:100750000606060606060606060606060606060639
:100760000606060606060606060606060606060629
:100770000606060606060606060606060606060619
:100780000606060606060606060606060606546859
:1007900072656164206661696C65640043617264BE
:1007A0005072657300436172642072656D6F766587
:1007B00064004361726420696E73657274656400DD
:1007C0004572726F7220696E697469616C697369D0
:1007D0006E672046696C652073797374656D20615E
:1007E0006E6420436172642D6472697665720043A1
:1007F000617264206D6F756E74656400696E7661F8
:100800006C6964205370656564006572726F722054
:10081000647572696E672043534420726561640099
:10082000466F75742062696A206F6E7476616E67B8
:10083000656E20636C69656E742064617461004745
:1008400065656E20466F75742062696A207A656EF0
:1008500064656E20636C69656E7420646174613FC9
:1008600000466F75742062696A207A656E64656EF1
:1008700020636C69656E74206461746100466F75F5
:10088000742062696A20636F6E6E656374656E20A2
:10089000736F636B6574004E54502074696D6520EE
:1008A00069733A20253032643A253032643A253073
:1008B00032640A00466F75742062696A206F70683E
:1008C000616C656E206E74702074696A642C20708F
:1008D0006F67696E67656E206F7665723A25640092
:1008E00052657472696576696E672074696D6520FA
:1008F00066726F6D2037382E3139322E36352E36EE
:10090000332E2E2E004950203D205B25645D2C5B4C
:1009100025645D2C5B25645D2C5B25645D0045745E
:100920006865726E65742053746172747570204DC1
:100930006573736167653A204F4B00446973636F59
:100940007665722053657276696365206661696CAD
:100950006564005265676973746572696E672065C6
:10096000746865726E6574206661696C65642E00DA
:10097000FFFFFF30FFFFFFFFFFFFFFFFFFFFFFFF56
:10098000FFFF000000000000000000000000000069
:100990000000000000000000000000000000000057
:1009A0000000000000000000000000000000000047
:1009B0000000000000000000000000000000000037
:1009C0000000000000000000000000000000000027
:1009D0000000000000000000000000000000000017
:1009E0000000000000000000000000000000000007
:1009F00000000000000000000000000000000000F7
:100A000000000000000000000000000000000000E6
:100A100000000000000000000000000000000000D6
:100A200000000000000000000000000000000000C6
:100A300000000000000000000000000000000000B6
:100A400000000000000000000000000000000000A6
:100A50000000000000000000000000000000000096
:100A60000000000000000000000000000000000086
:100A70000000000000000000000000000000000076
:100A80000000000000000000000000000000000066
:100A90000000000000000000000000000000000056
:100AA0000000000000000000000000000000000046
:100AB0000000000000000000000000000000000036
:100AC0000000000000000000000000000000000026
:100AD000000084E880937400479A3F9A469A3E9AB1
:100AE00081EE809300C380E4809301C385B78F7744
:100AF00085BF80E090E0359B05C0019641F0359BB5
:100B0000F8CFFBCF019619F03599F3CFFBCF85B71E
:100B1000806885BF47983F9846983E9887E08093C5
:100B2000C4008093CC0011241FBECFEFD1E2DEBF02
:100B3000CDBF14E0A0E0B2E0E0E7F5E101E00BBFDB
:100B400002C007900D92A63FB107D9F719E0A6EFB2
:100B5000B4E001C01D92A136B107E1F78FEF9FE726
:100B60009EBF8DBF8FEF9FE781569940815891407E
:100B700040F06FEF7EE76156794081E699E00E9490
:100B8000A2590E946562892B41F065E673E085E316
:100B900099E00E94FA890E944C6220E831E040E02E
:100BA00050E06CE979E28EE693E00E941C650E94B9
:100BB00000000C94B78A0C94000087EF84B98CE095
:100BC0008AB98BB18C70836F8BB98EE88DB98EB179
:100BD0008E7881608EB985B7806885BF85B780685B
:100BE00085BF8EE080BB81B38E70816F81BB88E151
:100BF00083BB0895DF92EF92FF920F931F93CF93E1
:100C0000DF93CDB7DEB7C650D2400FB6F894DEBF43
:100C10000FBECDBF0E942C1084E60E94905D0E9402
:100C2000DD050E94CE110E945A0A0E941D0C81E02F
:100C30000E94740B80E092E00E94F50B0E9409086C
:100C40000E94BD070E94340A0E94B2100E945623DF
:100C500083EA98E00E947223892B11F58091A30802
:100C60009091A4089F938F938091A5089091A608D6
:100C70009F938F938091A7089091A8089F938F933B
:100C800081E491E09F938F9386EC8F930E94F40808
:100C90008DB79EB709960FB6F8949EBF0FBE8DBF55
:100CA0000E942A210E94BE0F0E94300B40E050E0BB
:100CB00067EE76E081EB93E00E948F62892B49F426
:100CC00085B5846085BDA89A80916E00816080930F
:100CD0006E000E94E70B20E032E040E050E06CEE56
:100CE00076E080E192E00E941C6520E032E040E086
:100CF00050E060E777E084E192E00E941C650E948A
:100D0000EA289F938F9382E291E09F938F9386ECE2
:100D10008F930E94F4088E010B501E4FC8010E9451
:100D2000ED27A1E9B8E0F80182E101900D92815030
:100D3000E1F781E998E00E94E62681E00E94C65C26
:100D400078940E94C1418C0180E191E09F938F9340
:100D500086ECD82EDF920E94F408C8010E94CF27AB
:100D600040E250E069E372E0C8010E94B62744EF18
:100D700051E07E010894E11CF11CB701C8010E94FA
:100D80009F279F938F9382E091E09F938F93DF92B1
:100D90000E94F408FF92EF9284EF90E09F938F936C
:100DA000DF920E94F408C8010E949C278DB79EB76D
:100DB00042960FB6F8949EBF0FBE8DBF64E670E0FA
:100DC00080E090E00E94A25E0E942A10F7CF0E946D
:100DD000620A0E9459100895CF93DF93CDB7DEB712
:100DE00060970FB6F894DEBF0FBECDBF64E080E021
:100DF0000E94DE0B89E192E00E94F50B91E0C92E82
:100E0000D12C64E670E080E090E00E94A25E60E099
:100E100080E00E94DE0B83E292E00E94F50B0E94CC
:100E2000130B082F81508C3710F5802F992787FDE1
:100E300090959F938F9387E292E09F938F937E018B
:100E40000894E11CF11CFF92EF920E94CE7F63E0B8
:100E5000681B80E00E94DE0BC7010E94F50B8DB776
:100E60009EB706960FB6F8949EBF0FBE8DBF0D308D
:100E700069F490E081E0C816D10409F491E081E0C2
:100E80009827C92EDD248C2D0E94740B64E670E037
:100E900080E090E00E94A25EB4CF2091A308309140
:100EA000A4083F932F932091A5083091A6083F9363
:100EB0002F932091A7083091A8083F932F932AE2FF
:100EC00032E03F932F939F938F930E94CE7F8DB7F5
:100ED0009EB70A960FB6F8949EBF0FBE8DBF0895B9
:100EE00064E670E080E090E00E94A25E83EA98E011
:100EF0000E947223892B21F481EF91E80E944D0713
:100F000061EF71E880E090E00E94040CE9CF8091ED
:100F1000F6049091F70408958091F6049091F704F7
:100F2000009731F00E942C7E1092F7041092F60484
:100F30000895CF93DF93CDB7DEB724970FB6F8941B
:100F4000DEBF0FBECDBF69837A838B839C83809184
:100F5000F6049091F7040E947D7EAE014F5F5F4FD3
:100F600063E171E00E94C27D24960FB6F894DEBF63
:100F70000FBECDBFDF91CF910895EF92FF920F93F7
:100F80001F93CF93DF93CDB7DEB72D970FB6F894AD
:100F9000DEBF0FBECDBF80E092ECA1E0B0E08C835D
:100FA0009D83AE83BF8388E0E82EF12CEC0EFD1EFE
:100FB0006DE571E0C7010E94AC896BE571E08E01BF
:100FC0000F5F1F4FC8010E94AC894091510450919E
:100FD0005204B801C7010E94DD7E9093F70480930C
:100FE000F604009749F00E947D7EAE014C5F5F4F92
:100FF00061E071E00E94C27D2D960FB6F894DEBFCD
:101000000FBECDBFDF91CF911F910F91FF90EF9059
:1010100008951092F7041092F60440E060E070E04A
:101020008DEB93E00E94206208959091F80488303F
:1010300010F48093F804892F992708952F923F92F6
:101040004F925F926F927F928F929F92AF92BF92D8
:10105000CF92DF92EF92FF920F931F93CF93DF9384
:10106000CDB7DEB7CD54D0400FB6F894DEBF0FBE7B
:10107000CDBF7C016B011A01892B09F48EC094E06D
:10108000692E712C44245524AA24BB24A0E0B0E08E
:1010900000E010E07EC0C5018F709070892B69F56B
:1010A0004DE450E060E270E08E010F5F1F4FC80119
:1010B0000E94DF899301220F331F220F331F245018
:1010C000304040E050E0D801F201022E02C0F69517
:1010D000E7950A94E2F7EF70F070E75AFD4F8081D0
:1010E0008D934F5F5F4F245030404615570561F791
:1010F000D301129683010C5C1F4FF6019081E92FFA
:10110000E295EF70FF27E75AFD4F50814D0108949B
:10111000811C911CE92FFF27EF70F070E75AFD4FFB
:101120004081892F80528F3510F08EE201C0892FC7
:101130009E012F5F3F4FA20FB31F5C93F901E80D93
:10114000F91D4083F901E00FF11F80830F5F1F4FEE
:101150000894A11CB11CC5018F709070892B19F0E7
:10116000A214B30489F4F901E00FF11F1082B70152
:10117000C9010E94707FB7018AE090E00E94487F19
:1011800080E190E0480E591E0894C11CD11CD40186
:101190001296A214B30409F07ECFC35BDF4F0FB6E3
:1011A000F894DEBF0FBECDBFDF91CF911F910F919D
:1011B000FF90EF90DF90CF90BF90AF909F908F9077
:1011C0007F906F905F904F903F902F900895609127
:1011D000F9047091FA046115710529F0992787FDCA
:1011E00090950E94487F08951F93CF93DF93CDB7CA
:1011F000DEB722970FB6F894DEBF0FBECDBF1985BC
:101200006091F9047091FA046115710509F410C137
:10121000212F3327277030708091F8049927821787
:1012200093070CF405C1812F87708330F1F084306F
:1012300028F48130A1F08230A8F40EC08530D9F0B6
:101240008530B0F08630D1F0873019F485E691E032
:1012500017C083E691E014C084EA91E011C08BE9E5
:1012600091E00EC082E991E00BC089E891E008C0EE
:1012700080E891E005C087E791E002C08EE691E04A
:101280000E94817F6091F9047091FA04212F287FD8
:10129000283709F4AAC0293790F5283309F499C0F2
:1012A0002933B0F4283109F48EC0293138F42830BC
:1012B00009F486C0203109F053C055C0283209F422
:1012C00085C0203309F455C0203209F049C04EC012
:1012D000283509F484C0293548F4283409F47CC041
:1012E000203509F44CC02034D9F546C0283609F41D
:1012F00079C0203709F449C0203691F543C0283B16
:1013000009F47FC0293BA8F4283909F474C02939AD
:1013100040F4283809F46CC02039E9F1203801F58F
:1013200037C0283A09F46AC0203BD9F1203AC1F409
:1013300035C0283D09F46BC0293D40F4283C09F430
:1013400063C0203DA1F1203C59F42EC0283E29F075
:10135000203F99F1203E21F42DC087EB91E059C048
:101360008DEA91E056C088E492E053C083E492E0B5
:1013700050C08EE392E04DC089E392E04AC084E31E
:1013800092E047C08FE292E044C08AE292E041C01E
:1013900085E292E03EC080E292E03BC08BE192E0C9
:1013A00038C086E192E035C081E192E032C08CE045
:1013B00092E02FC087E092E02CC082E092E029C04A
:1013C0008DEF91E026C088EF91E023C083EF91E09C
:1013D00020C08EEE91E01DC089EE91E01AC084EE2F
:1013E00091E017C08FED91E014C08AED91E011C03B
:1013F00085ED91E00EC080ED91E00BC08BEC91E0AB
:1014000008C086EC91E005C081EC91E002C08CEB55
:1014100091E00E94817FAE01445F5F4F5A83498310
:101420006A857B858091F9049091FA040E94957FEA
:1014300022960FB6F894DEBF0FBECDBFDF91CF91DD
:101440001F9108958091F9049091FA041092FA0482
:101450001092F9040E946C7E08950E948707909371
:10146000FA048093F904089587E08093F8040E94B9
:101470002D0A0895833059F0843018F4882339F008
:1014800008C0853031F0853040F0863091F48B987B
:1014900001C08B9A8093FB0408958091FB048130F6
:1014A00021F48B981092FB0408958B9A81E080932D
:1014B000FB0408958B981092FB0408958091FB041F
:1014C00099270895A398000000006FB1A39AA498EB
:1014D000000000004FB1A49A5B98000000008FB19B
:1014E0005B9A5A98000000002FB15A9A62956F706B
:1014F0007727407F5527642B752B807F992734E011
:10150000880F991F3A95E1F7682B792B207F3327B5
:10151000322F2227622B732B7093FF046093FE04FB
:101520008FEF6F3B780709F458C08FEF603C780766
:10153000F8F48BEF6F3F780709F45EC08CEF6030F2
:10154000780748F48FEE6F3F780709F45BC06F5F50
:10155000774F89F548C08EEF6F3F780709F449C08F
:101560008FEF6F37780781F16F5F7D4F21F547C0AF
:101570008FEF673F780759F18FEF683F780760F486
:101580008FEF6F3D780791F18FEF6F3E780741F154
:101590006F5C7F4F81F40CC08FEF6D3F780789F04F
:1015A0008FEF6E3F7807B1F06B5F7F4F21F406C07D
:1015B0008EE090E029C088E890E026C081E090E0CD
:1015C00023C082E090E020C083E090E01DC084E072
:1015D00090E01AC085E090E017C086E090E014C06B
:1015E00087E090E011C088E090E00EC089E090E0D4
:1015F0000BC08AE090E008C08BE090E005C08CE072
:1016000090E002C08DE090E0809300050895E82FFF
:10161000862F8150823030F4E03120F4FF27EC5FD8
:10162000FA4F60830895809100059927089580936B
:101630000005E091FC04F091FD04309739F48FEF40
:101640009FEF9093FD048093FC0408958FEFEF3F8C
:10165000F80729F084819581019695838483089504
:10166000A39AA49A5B9A5A9A109203058FEF9FEF60
:101670009093FF048093FE040FB6F8940F9210929B
:10168000FD041092FC040F900FBE8FEF80930005B5
:10169000E4E0F5E082E0819395E0E431F907D9F7E1
:1016A000109202051092010561E088E00E94070B8C
:1016B00061E08BE00E94070B61E08AE00E94070B6B
:1016C00061E08CE00E94070B0895AB01BC018CEF38
:1016D00094E00E948A6120E030E08F5F9F4F11F418
:1016E00021E030E0C9010895813011F4739A089522
:1016F000882309F4739808959AB19F70906F9AB9EE
:101700009BB19F70607F962B9BB9823011F48A98B1
:1017100001C08A9A729A0000000072988A988AB171
:101720008F708AB98BB18F70806F8BB908950F93CA
:101730001F93082F162F8A98899A729A000000002A
:101740004F99FBCF72988A988998612F607F802F7C
:101750000E947C0B1295107F612F802F0E947C0BC2
:101760001F910F910895EF92FF920F931F93CF93C4
:10177000DF938C01F62E60E482E00E94970BCF2D60
:10178000DD27C7FDD09583E0CC0FDD1F8A95E1F7FB
:10179000EE24FF2409C0F80161918F0183E00E94CB
:1017A000970B0894E11CF11CEC16FD06A4F3DF91E5
:1017B000CF911F910F91FF90EF900895811180E4D8
:1017C0006068862B682F82E00E94970B089561E085
:1017D00082E00E94970B62E082E00E94970B0895DE
:1017E000682F83E00E94970B0895CF93DF93EC015D
:1017F00003C00E94F00B2196209719F0888188235E
:10180000C1F7DF91CF910895EF92FF920F931F934D
:101810008C017B0160E080E00E94DE0BC8010E9429
:10182000F50B60E081E00E94DE0BC7010E94F50B22
:101830001F910F91FF90EF9008951F938CE80E94E5
:10184000905D10E063E382E00E947C0B84E00E94E4
:10185000905D1F5F1330B1F762E282E00E947C0B63
:1018600081E00E94905D68E282E00E94970B85E033
:101870000E94905D6CE082E00E94970B85E00E94E0
:10188000905D61E082E00E94970B85E00E94905D90
:1018900066E082E00E94970B60E882E00E94970B6E
:1018A0001F9108950FB6F8940F929DB3882311F0FD
:1018B000EE9A01C0EE980F900FBE892F992726E06F
:1018C000969587952A95E1F781709070089580E04C
:1018D0000E94520C982F80911405813011F41092BF
:1018E0001405892F0E94520C80E090E008958091A9
:1018F000140599270895809115059091160508956E
:10190000809115059091160508950F931F93CF931D
:10191000DF93EC018B0180E090E00E94D21105C0C2
:10192000FE0184910E94BA11219601501040FFEFF0
:101930000F3F1F07A9F70E94AF11DF91CF911F91B1
:101940000F9108951F9380E00E94520C182F64E0BD
:1019500070E08BEB95E00E94850C64E070E087EB13
:1019600095E00E94850C812F0E94520C80E090E04F
:101970001F9108950F931F93CF93DF938C01EB0179
:1019800080E090E00E94D21105C0F80181918F01A2
:101990000E94BA112197FFEFCF3FDF07B1F70E94F6
:1019A000AF11DF91CF911F910F910895EF92FF92A8
:1019B0000F931F93F82E8B010E94B611E82E80E042
:1019C0000E94B31180E090E00E94D2112C9882E036
:1019D0000E94BA118F2D0E94BA11812F99270E945F
:1019E000BA11802F0E94BA112C9A0E94AF118E2D2D
:1019F0000E94B3111F910F91FF90EF900895DF9215
:101A0000EF92FF920F931F93082FE62E80E00E9423
:101A1000520CD82E1127102F0027FF240E291F2922
:101A2000B8018BE00E94D60C8D2D0E94520C80E0F4
:101A300090E01F910F91FF90EF90DF900895FF923B
:101A40000F931F938C0180E00E94520CF82E1C60B3
:101A5000B80180E00E94D60C8F2D0E94520C80E0CD
:101A600090E01F910F91FF9008951F93CF93DF9304
:101A7000CDB7DEB721970FB6F894DEBF0FBECDBF4E
:101A8000898380E00E94520C182F80E290E00E942F
:101A90001F0D63E070E083EC95E00E94850C61E02F
:101AA00070E0CE0101960E94BA0C64E070E08FEB0A
:101AB00095E00E94850C812F0E94520C80E090E0FE
:101AC00021960FB6F894DEBF0FBECDBFDF91CF9148
:101AD0001F910895282F332727703070C90153E0D4
:101AE000880F991F5A95E1F7820F931F885C0E9417
:101AF000350D0895DF92EF92FF920F931F93CF93CE
:101B0000DF93CDB7DEB721970FB6F894DEBF0FBED7
:101B1000CDBF89837B0180E00E94520CD82E80E2E9
:101B200090E00E941F0D89818295807F885C898367
:101B300063E070E08EEC95E00E94850C61E070E05F
:101B4000CE0101960E94BA0C06EC15E064E070E04C
:101B5000C8010E94850C8E2D0E94905D64E070E0AB
:101B60008AEC95E00E94850C64E070E0C8010E9458
:101B7000850C8D2D0E94520C80E090E021960FB6CE
:101B8000F894DEBF0FBECDBFDF91CF911F910F91B3
:101B9000FF90EF90DF9008950F931F938C0180E0EA
:101BA0000E94520C10921405C80184600E941F0DFF
:101BB0008AE00E94905D80E48CBB80E090E01F9101
:101BC0000F910895DF92EF92FF920F931F93182FBA
:101BD0000E94B611D82E80E00E94B31180E090E000
:101BE0000E94D2112C9883E00E94BA11812F0E948A
:101BF000BA110E94BF11E82EFF24FE2CEE240E9491
:101C0000BF11082F2C9A0E94AF118D2D0E94B31185
:101C10001127C701802B912B1F910F91FF90EF90FF
:101C2000DF900895FF920F931F9380E00E94520C63
:101C3000F82E8BE00E94E20D8C018F2D0E94520C39
:101C4000C8011F910F91FF900895FF920F931F936A
:101C5000182F80E00E94520CF82E812F0E94E20D76
:101C60008C018F2D0E94520CC8011F910F91FF9083
:101C7000089589E00E94250E9C018FEF213E3807D0
:101C800090F58DE424353807A1F18DE4253538072A
:101C900068F481E424353807F9F08DE424333807FB
:101CA000D9F081E42434380709F516C087E52D36CC
:101CB0003807F9F087E52E36380728F487E52D3404
:101CC0003807A1F409C086E72536380729F08FEFD9
:101CD000203E380759F40DC08091150590911605E6
:101CE000039739F403C020EE3FEF03C080E090E09B
:101CF0000895C901089580E00E94520C2F982C9AF3
:101D00002898209A84E00E94905D80E00E94B311A0
:101D1000109214052F9A84E00E94905D81E00E9449
:101D2000E20D74E0969587957A95E1F7877090704B
:101D30009093160580931505039719F460E070EEF3
:101D400002C060E078E983E00E94D60C82E30E9442
:101D5000905D80E090E00E941F0D60E080E00E94B6
:101D6000FF0C82E30E94905D80911505909116050D
:101D70000397029710F482E001C081E00E94B31142
:101D800040E050E063ED7EE08BEA93E00E948F62DA
:101D900066E070E08BEA93E00E940D6380E48CBB08
:101DA00080E090E00895BF92CF92DF92EF92FF9291
:101DB0000F931F93CF93DF93CDB7DEB722970FB664
:101DC000F894DEBF0FBECDBF80911405813009F0BD
:101DD0004FC0669B4DC080E00E94520CB82E789494
:101DE0001A82198280E090E00E94D211F0E2EF2E78
:101DF000F12C00E010E0CC24DD2403C0EFE1EE2E56
:101E0000F12C89819A81C816D906C0F0C114D10479
:101E100019F0C6010E94AA5ACE0101960E94295AC1
:101E20008C0189819A81892B19F0CC24DD2408C08A
:101E300082E080931405CC24DD2412C0892B41F06C
:101E4000F80181918F010E94BA110894C11CD11C24
:101E50006699D4CF0894E108F108E114F10489F6F9
:101E60000E94AF11C6010E94475B8B2D0E94520C4D
:101E700022960FB6F894DEBF0FBECDBFDF91CF9193
:101E80001F910F91FF90EF90DF90CF90BF9008953A
:101E90000F931F93CF93DF9380911405813009F442
:101EA00035C080E00E94520CCDE4D2E0FE01659185
:101EB0007491E9EDF5E0E4918E2F0E94D60C00E0DC
:101EC00010E011C0FE0165917491F801E752FA4FDC
:101ED000E4918E2F0E94D60CC80164EF71E00E943D
:101EE000408A892B11F40E942A100F5F1F4F2296FF
:101EF00081E0053B180731F781E08093140580E00D
:101F000090E00E94D30E81E00E94520C80E090E0AD
:101F1000DF91CF911F910F9108951F93CF93DF937E
:101F200080E090E00E94CC0D80E290E00E941F0DC6
:101F300080E00E94520C182F68E070E081ED95E07F
:101F40000E94850C88E20E94905D88E00E94E20D6C
:101F5000EC01812F0E94520C80911505909116057D
:101F6000039731F480E8CF37D80711F4C0E0D0E010
:101F7000CE01DF91CF911F910895089580916A005D
:101F80008C7F80936A0040E050E06DEB7FE085EA53
:101F900093E00E948F62892B31F480916A00826005
:101FA00080936A00EC9A8091810083608093810025
:101FB000AD9A0FB6F8940F9210921805109217056B
:101FC0000F900FBE0895EF92FF920F931F93AB01F6
:101FD000BC01A89521E0E12CE8E0FE2E012D112D99
:101FE00001C02F5FD801C701022E04C0880F991FBE
:101FF000AA1FBB1F0A94D2F737E0B695A79597950D
:1020000087953A95D1F784179507A607B70748F340
:1020100020931A052A3018F0297020931A05209170
:102020001A0523FF02C038E201C038E088E190E0E1
:102030002770322B0FB6F894A895809360000FBEDE
:102040003093600081E0809319051F910F91FF90FC
:10205000EF900895A895089580911905882319F0A7
:102060008F5F8093190588E10FB6F8948093600024
:10207000109260000FBE0895809119058230C0F063
:10208000815080931905813099F420911A0523FF1E
:1020900002C038E201C038E088E190E02770322BBE
:1020A0000FB6F894A895809360000FBE309360003F
:1020B000089580911E0590911F058130910589F04A
:1020C0008130910530F08230910521F10397E9F5D7
:1020D0002DC078993AC081E080931D0581E090E0A1
:1020E00020C0789912C080911D058F5F80931D05D7
:1020F0008E3159F581E080931C0582E090E0909349
:102100001F0580931E0581E021C010921F051092CB
:102110001E051BC0789B19C081E080931D0583E0DC
:1021200090E090931F0580931E050FC080911D05C0
:102130008F5F80931D05843141F410921C0510922D
:102140001F0510921E0580E001C082E099270895C6
:1021500080911C0599270895809120059091210573
:10216000089508950F931F93CF93DF93CDB7DEB7F4
:102170002A970FB6F894DEBF0FBECDBF10921F0591
:1021800010921E0510921C056CE977E08E010F5F1E
:102190001F4FC8010E94AC89C8010E94725C892B44
:1021A000B1F420E033E040E050E063E771E1C801C2
:1021B0000E941C65892B59F48EE897E09F938F93BA
:1021C00080EE8F930E94F4080F900F900F902A9644
:1021D0000FB6F894DEBF0FBECDBFDF91CF911F9138
:1021E0000F910895FF920F931F93CF93DF93CDB775
:1021F000DEB72A970FB6F894DEBF0FBECDBF8BE6D1
:1022000092E00E940462892BB9F480E00E94520C93
:10221000F82E40E067E070E089E692E00E942062DC
:102220008C01892B51F540E067E070E08CE892E08A
:102230000E9420628C0121C00E94941580E00E94BF
:10224000520CF82EE0917C02F0917D02309729F03B
:1022500089E692E01995892B59F4E0919F02F0915B
:10226000A002309741F08CE892E01995892B19F083
:102270000FEF1FEF02C000E010E08F2D0E94520C04
:1022800001151105C1F48FEE97E09F938F9386EEB1
:102290008F930E94F40860E070E0CE0101960E94E6
:1022A000D47D0F900F900F902FEF8F3F920771F01A
:1022B0000E94AC7D0BC080EC97E09F938F9383EEE0
:1022C0008F930E94F4080F900F900F90C8012A96E8
:1022D0000FB6F894DEBF0FBECDBFDF91CF911F9137
:1022E0000F91FF90089580911C0580931B058091AC
:1022F0001C058130B9F480911B05882349F582EBD8
:1023000097E09F938F9386EE8F930E94F4080E942C
:10231000F2100F900F900F90892B29F780E10E9407
:10232000170BE1CF8823A1F480911B05813081F444
:1023300085EA97E09F938F9386EE8F930E94F4082F
:1023400080911C0580931B050F900F900F90CFCFAD
:1023500064EF71E080E090E00E94A25EC8CF779ABF
:102360002E982D9A08958093220508958091220534
:10237000992708958EBD0DB407FEFDCF08958FEF08
:102380008EBD0DB407FEFDCF8EB5992708958EBD85
:102390000DB407FEFDCF8EB599270895779A2E9834
:1023A0002D9A08959C010097F9F4809122058823C5
:1023B00021F481E08DBD81E504C0813021F41DBC94
:1023C00080E58CBD25C0823019F481E08DBDF8CF49
:1023D0008CEF97E09F938F938BE78F930E94F40885
:1023E0000F900F900F9014C0019741F481E08DBDC4
:1023F00080E58CBD2D9A2E98779808951DBC80E5B8
:102400008CBD2130310520F02230310541F404C06B
:10241000779A2D9A2E9A0895779A2E982D98089546
:1024200080E090E0089580E090E0089580E090E002
:10243000089540E050E060E070E083E295E00E94A3
:102440008A610895CF93DF93CEEFDFEF0E94BF1133
:102450008F3F11F42197D1F79927DF91CF910895FC
:10246000CF93DF93CEEFDFEF0E94BF118E3F11F0CD
:102470002197D1F79927DF91CF910895DF92EF92BD
:10248000FF920F931F93D82E8B017A0182E090E088
:102490000E94D2118FEF0E94BA118D2D80640E948C
:1024A000BA11812F99270E94BA11802F0E94BA1168
:1024B0008F2D99270E94BA118E2D0E94BA1185E99D
:1024C0000E94BA118FEF0E94BA111F910F91FF90D5
:1024D000EF90DF9008956F927F928F929F92AF92CC
:1024E000BF92CF92DF92EF92FF920F931F93CF9301
:1024F000DF935B0169017A013801882499243AC08D
:10250000A601542F4427550FC701B60127E0969521
:102510008795779567952A95D1F781E10E943E12BC
:102520000E9430128E3F29F00E94AF1181E090E0AE
:1025300026C08501C0E0D0E00E94BF11F801819360
:102540008F012196F2E0C030DF07B1F780E092E022
:10255000A80EB91E8FEF0E94BA118FEF0E94BA1118
:102560000E94AF110894811C911C0894C11CD11CBD
:10257000E11CF11C8614970419F680E090E0DF91CD
:10258000CF911F910F91FF90EF90DF90CF90BF9070
:10259000AF909F908F907F906F90089583E295E029
:1025A0000E94376108952F923F924F925F926F92EF
:1025B0007F928F929F92AF92BF92CF92DF92EF92D3
:1025C000FF920F931F93CF93DF93CDB7DEB728977A
:1025D0000FB6F894DEBF0FBECDBFF82E6B013901E8
:1025E0004A0118010E941912FF2019F022E030E080
:1025F000A8C0C801AA27BB27860D971DA81DB91D15
:10260000209128053091290540912A0550912B05EC
:10261000281739074A075B0728F483E090E09E8378
:102620008D8302C01E821D82809125059091260512
:1026300097FD04C0E2E0F0E0FE83ED8396FD7FC0ED
:102640002D813E81232B09F092C0DC82CB8272C0A7
:102650003FEF2316310409F010F4610103C0C12CCF
:10266000A1E0DA2E4B805C80840173011A8219820A
:1026700053C0A701542F4427550FC801B701E7E005
:102680009695879577956795EA95D1F788E10E94A9
:102690003E120E9422128F3F09F445C08EEF0E9425
:1026A000BA11520118861F82F50181915F010E94C3
:1026B000BA112F8138852F5F3F4F38872F832050E5
:1026C000324091F7E0E0F2E04E0E5F1E8FEF0E9485
:1026D000BA118FEF0E94BA118FEF0E94BA115FEF0B
:1026E000A52EB52E0E94BF11882339F40894A108A5
:1026F000B108A114B104B9F0F5CF0894E11CF11CA4
:10270000011D111DAB2879F00E94AF1129813A817A
:102710002F5F3F4F3A83298389819A818C159D05CC
:1027200009F0A7CF11C00E94AF11E1E0F0E0FE83F5
:10273000ED831DC02114310409F08ACF18C028E0B0
:1027400030E03E832D8313C0C601AA27BB27680E45
:10275000791E8A1E9B1E2C183D08DC2CCC24DD0C17
:102760008B819C818C0D9D1D9C838B83E3CF0E946C
:10277000CE128D819E8128960FB6F894DEBF0FBED3
:10278000CDBFDF91CF911F910F91FF90EF90DF9020
:10279000CF90BF90AF909F908F907F906F905F9001
:1027A0004F903F902F9008958F929F92AF92BF923B
:1027B000CF92DF92EF92FF920F931F93CF93DF930D
:1027C000F82EEB0149015A0168010E941912FF20FD
:1027D000F1F4809125059091260597FF18C0C80156
:1027E000AA27BB27880D991DAA1DBB1D209128056E
:1027F0003091290540912A0550912B05281739075A
:102800004A075B0708F042C003E010E044C002E062
:1028100010E041C02FEFC216D10409F010F4E60118
:1028200002C0C0E0D1E08E01A5019401B70185E2AC
:1028300095E00E946B128C01892B69F5CE01AA27C5
:10284000BB27880E991EAA1EBB1ECC1ADD0A8091DA
:102850002C0590912D059C01C29FC001C39F900D36
:10286000D29F900D1124E80EF91EC114D10491F6E7
:1028700000E010E010C001E010E0A5019401BE01ED
:1028800085E295E00E946B128C0105C07E0101304B
:10289000110559F7F0CF0E94CE12C801DF91CF91F8
:1028A0001F910F91FF90EF90DF90CF90BF90AF906E
:1028B0009F908F900895EF92FF920F931F93182F80
:1028C0000E941912112321F0EE24FF24870108C071
:1028D000E0902805F090290500912A0510912B051C
:1028E0000E94CE12C801B7011F910F91FF90EF9087
:1028F00008951F93CF93DF93182F0E94191211236D
:1029000019F0C0E0D0E004C0C0912C05D0912D0595
:102910000E94CE12CE01DF91CF911F910895CF92E8
:10292000DF92EF92FF920F931F93CF93DF93CDB778
:10293000DEB760970FB6F894DEBF0FBECDBF6B0158
:102940000E941912809125059091260597FF8AC053
:1029500040E050E060E070E089E00E943E120E949A
:1029600030128E3F61F08AE098E09F938F9383EF5F
:102970008F930E94F4080F900F900F9073C08E01F8
:102980000F5F1F4F0E94BF11F80181938F01CE018D
:102990004196E817F907B1F78FEF0E94BA118FEF50
:1029A0000E94BA110E94AF11EE80FFE0EF2221E0F9
:1029B00030E0C90102C0880F991FEA94E2F77C0158
:1029C0006F81772763707070762F6627770F770F88
:1029D000E885FF27EE0FFF1FEE0FFF1F6E2B7F2BEB
:1029E00009851127EA85FF27E370F070DF01AA0F40
:1029F000BB1FEA2BFB2BAB85BB2786E01695079503
:102A00008A95E1F7602B712B6F5F7F4F882799279D
:102A1000AA0FAB2FAA1FBB0BB195EA2BFB2B32964B
:102A200002C0220F331FEA95E2F7442755270E9480
:102A3000018A609328057093290580932A05909355
:102A40002B05F0922D05E0922C050E94CE1201E09C
:102A500010E020E030E040E050E0B60180E00E946D
:102A6000D41304C00E94CE1281E090E060960FB6AD
:102A7000F894DEBF0FBECDBFDF91CF911F910F91B4
:102A8000FF90EF90DF90CF900895CF93DF937093F6
:102A90002F0560932E05509331054093300589E052
:102AA000E5E2F5E011928A95E9F71092270583E2B5
:102AB00095E00E943761C0E0D0E08FEF0E94BA112C
:102AC0002196CA30D105C9F740E050E060E070E0DF
:102AD00080E00E943E120E942212813099F4CFEFD2
:102AE000DFEF07C040E050E060E070E081E00E946E
:102AF0003E120E94BF11882319F0219799F702C056
:102B0000CD2B29F40E94AF1181E090E00AC00E9411
:102B1000AF1180E090E8909326058093250580E032
:102B200090E0DF91CF910895109233051092320515
:102B30000895EF92FF920F931F93CF93DF93EC01D1
:102B40007A018B018B8180FD1AC08EEF9FEFAFEF72
:102B5000BFEFE80EF91E0A1F1B1F2A8133274427E7
:102B60005527C801B7010E94018AAB01BC018A8DBB
:102B70009B8DAC8DBD8D480F591F6A1F7B1FCB01EC
:102B8000BA01DF91CF911F910F91FF90EF900895BF
:102B90008FEF9FEF08958FEF9FEF0895282F8F3FBE
:102BA00011F420E006C0882321F099270E94908A22
:102BB000282F822F992787FD909508958F929F92B5
:102BC000AF92BF92CF92DF92EF92FF920F931F933B
:102BD000FC016A017B01838180FF07C0CB01BA0140
:102BE0006F5F7F4F8F4F9F4F69C08081828893882E
:102BF000A488B58860913605709137058130A9F5B4
:102C0000A7019601A7E05695479537952795AA9570
:102C1000D1F7280D391D4A1D5B1D01E010E08181AF
:102C20000E94D4138091360590913705F601EF7715
:102C3000F070EE0FFF1FEE0FFF1FE80FF91F60810E
:102C40007181828193819F706F3F2FEF72072FEF09
:102C500082072FE0920771F1673F2FEF72072FEF86
:102C600082072FE0920751F525C055274F2D3E2DA5
:102C70002D2D280D391D4A1D5B1D01E010E08181BD
:102C80000E94D4138091360590913705F601F070BB
:102C9000EE0FFF1FE80FF91F208131818FEF2F3FCB
:102CA000380741F08FEF273F380721F0B901882717
:102CB000992704C060E070E080E090E01F910F91E0
:102CC000FF90EF90DF90CF90BF90AF909F908F904C
:102CD00008952F923F924F925F926F927F928F92C0
:102CE0009F92AF92BF92CF92DF92EF92FF920F939B
:102CF0001F93CF93DF93CDB7DEB76A970FB6F894E3
:102D0000DEBF0FBECDBF988B8F877A8B698B5C8BB4
:102D10004B8B18012901FE8AED8AD88ECF8AD70104
:102D20001D921D921D921C921397DA010D900020A6
:102D3000E9F71197A41BB50BCD010C966DE070E07F
:102D40000E94408AF62FF064F983F53E09F496C19B
:102D50008DE0689F900111243B832A832F33310536
:102D60000CF08CC17901BF2E1E86CC24DD2480C1DD
:102D7000B201A1018F8598890E949915688779878A
:102D80008A879B87EF85F8898281282F33273D87A3
:102D90002C8731E0231631044104510479F48081F9
:102DA000882361F482859385A485B5858887998772
:102DB000AA87BB87268137813D872C8768847984E1
:102DC0008A849B8442C1609136057091370501E089
:102DD00010E0A4019301EF85F88981810E94D4134A
:102DE00020913605309137053F832E838091380539
:102DF000909139059D838C833A8F298F9E859130E0
:102E000019F4E98DFA8D1DC02F89388D232B99F582
:102E1000A98DBA8D8C91853E71F1882361F14BE0CB
:102E200050E069897A89CD010E94C989892B19F5F9
:102E3000E989FA899385E98DFA8D83858923891734
:102E4000D1F484899589AA27BB27AC01332722278F
:102E5000828D938DAA27BB27282B392B4A2B5B2BDE
:102E6000848D958DA68DB78DED89FE8980839183A4
:102E7000A283B38307C1E98DFA8D83858F3009F072
:102E8000D0C0A080AB1409F0CCC0B6FE0DC0BFEB23
:102E9000AB2EAB20AC81BD81AE0DBF1D1C92089442
:102EA000E108F108CC80DD80E98DFA8D868D978D63
:102EB0000E94CE15F601EE0DFF1D808387010150A3
:102EC0001040E98DFA8D848D958D0E94CE15F60106
:102ED000E00FF11F808301501040E98DFA8D808D45
:102EE000918D0E94CE15F601E00FF11F80830150F5
:102EF0001040E98DFA8D868997890E94CE15F601DA
:102F0000E00FF11F808301501040E98DFA8D848914
:102F100095890E94CE15F601E00FF11F80830150C4
:102F20001040E98DFA8D828993890E94CE15F601B1
:102F3000E00FF11F808301501040E98DFA8D8089E8
:102F400091890E94CE15F601E00FF11F8083015098
:102F50001040E98DFA8D868597850E94CE15F60181
:102F6000E00FF11F808301501040E98DFA8D8185BB
:102F700092850E94CE15F601E00FF11F808301506B
:102F80001040E98DFA8D878190850E94CE15F6015B
:102F9000E00FF11F808301501040E98DFA8D85818B
:102FA00096810E94CE15F601E00FF11F808301503B
:102FB0001040E98DFA8D838194810E94CE15F6012F
:102FC000E00FF11F808301501040E98DFA8D81815F
:102FD00092810E94CE15F601E00FF11F8083BA2C7A
:102FE000BA9429F078010894E108F1081AC0AB8975
:102FF000BC890D900020E9F711972B893C89A21B11
:10300000B30BAD01B601C9010E94C989892B31F406
:10301000EA80FB80B98031E03E8703C0EA80FB8014
:10302000B980898D9A8D80969A8F898F8E819F81A4
:1030300080509E4FA98DBA8DA817B90709F0DECE32
:103040000894611C711C811C911CC301E885F985E1
:103050008E1B9F0B2C853D85821793070CF4B3CEF6
:10306000B201A1018F8598890E94DE151B012C01F8
:10307000211431044104510409F07ACE20E030E0FB
:1030800040E050E0CA01B9016A960FB6F894DEBF7D
:103090000FBECDBFDF91CF911F910F91FF90EF90A9
:1030A000DF90CF90BF90AF909F908F907F906F9068
:1030B0005F904F903F902F90089580EA95E00E9496
:1030C0003761089580EA95E00E943761089540E0F5
:1030D00050E060E070E080EA95E00E948A61089527
:1030E0002F923F924F925F926F927F928F929F9218
:1030F000AF92BF92CF92DF92EF92FF920F931F9306
:10310000CF93DF93CDB7DEB728970FB6F894DEBF25
:103110000FBECDBF8C016B015E834D830E9467188B
:103120000115110509F4F6C0F8010481158118870D
:103130000F830115110509F4EDC06D817E816115C4
:10314000710509F4E7C0F801E484F5840685178564
:103150002081318142815381E216F306040715076D
:1031600008F0D2C0CB01AA2797FDA095BA2F8E0DEB
:103170009F1DA01FB11F281739074A075B0720F4BE
:103180002E193F093E832D83EF81F885008CF18D48
:10319000E02DFC83EB83DA82C982248035804D8068
:1031A0005E80ABC0EF81F8856088718882889388E3
:1031B0005101CC24DD2440855185628573858B8146
:1031C0009C810E9499157B018C01C401B301A60169
:1031D00095010E94538A442737FD4095542F2E0DA8
:1031E0003F1D401F511F609136057091370501E06A
:1031F00010E0EB81FC8181810E94D413892B09F0BE
:1032000079C0C401B301A60195010E94538A6101EE
:10321000421453040CF46201CB018C0D9D1D281641
:1032200039061CF46101C61AD70A809136059091BF
:103230003705680F791FA60189819A810E94D68976
:1032400076010027F7FC0095102FEF81F885248583
:103250003585468557852E0D3F1D401F511F2487FC
:1032600035874687578780899189A289B3898E0DD2
:103270009F1DA01FB11F808B918BA28BB38B808170
:103280009181A281B381281739074A075B0720F093
:1032900081E090E0978B868BEF81F88520893189DA
:1032A00042895389EB81FC81868D978DA0A1B1A1C4
:1032B000281739074A075B07A0F0EF81F88540859A
:1032C0005185628573858B819C810E94DE15EF811B
:1032D000F8856087718782879387108A118A128A9E
:1032E000138A69817A816C0D7D1D7A8369834C18FC
:1032F0005D0803C08DEF9FEF09C04114510409F030
:1033000051CF0D811E8108C08EEF9FEFEF81F885B0
:10331000958B848B00E010E00E946218C80128960B
:103320000FB6F894DEBF0FBECDBFDF91CF911F91D6
:103330000F91FF90EF90DF90CF90BF90AF909F9054
:103340008F907F906F905F904F903F902F90089557
:10335000EF92FF920F931F93CF93DF93EC010E94A4
:103360006718209749F0EC81FD81309729F0E080C3
:10337000F1800281138108C00FEFE02E0FEFF02ED5
:103380000FEF002F0FEF102F0E946218C801B70136
:10339000DF91CF911F910F91FF90EF900895CF9300
:1033A000DF93EC010E946718209719F4CFEFDFEF4D
:1033B0000BC08C819D81009711F00E943559CE0180
:1033C0000E943559C0E0D0E00E946218CE01DF9122
:1033D000CF9108950F931F938C010E946718012BC2
:1033E00011F410923C050E9462181F910F910895EC
:1033F0002F923F924F925F926F927F928F929F9205
:10340000AF92BF92CF92DF92EF92FF920F931F93F2
:10341000CF93DF93CDB7DEB724970FB6F894DEBF16
:103420000FBECDBF182F0E94671880913405909170
:103430003505892B41F480E490E00E94C2589093B6
:103440003505809334058091380590913905892B95
:1034500041F480E490E00E94C25890933905809333
:1034600038058091360590913705892B59F480E015
:1034700092E00E94C2589093370580933605892BBD
:1034800009F445C18091340590913505892B09F4E3
:103490003EC18091380590913905892B09F437C1D7
:1034A00082E2189FF0011124E65CFA4F11928A958E
:1034B000E9F7E12EFF242701440C551CC70135E034
:1034C000880F991F3A95E1F7480E591E2AE335E017
:1034D000420E531EF2011183812F0E947914F201D2
:1034E00095838483812F0E941012019721F4F201A9
:1034F000838181608383812F0E941312019721F4BD
:10350000F201838182608383F201848195818050FE
:10351000924019F001E010E0FCC0F201838181FFCC
:1035200005C020E230E040E050E038C06091360550
:103530007091370501E010E020E030E040E050E01D
:103540008E2D0E94D4138C01892B09F0E2C0E091EA
:103550003605F0913705E250FE4F80819181EE5F94
:10356000F14085559A4A09F0D4C0E653FE4F808158
:103570009181A281B381EA5CF1400097A105B10578
:1035800009F4C7C0EA53FE4F208131814281538143
:10359000211531054105510509F4BBC0609136057F
:1035A0007091370501E010E08E2D0E94D413209019
:1035B0003605309037054EEF51E0240E351ED1010F
:1035C0008D919C91E2E0FEEF2E0E3F1E85559A4AAA
:1035D00009F09DC0F1018585F2018283F101268900
:1035E00037892115310571F0C901AA27BB278983C5
:1035F0009A83AB83BC83D2011C9281E090E0A0E06F
:10360000B0E010C0F10124A135A146A157A1298342
:103610003A834B835C8381E0D2018C9384A595A58A
:10362000A6A5B7A5F20186879787A08BB18BF1017C
:10363000638574858189928925E0880F991F2A9571
:10364000E1F7860F971F01970E942C8A3B0188247F
:103650009924E684F78400271127A48CB58CC68CA6
:10366000D78CAE0CBF1CC01ED11EF201A28AB38A39
:10367000C48AD58A29813A814B815C81A20EB31E0E
:10368000C41ED51EA68AB78AC08ED18EF10160896C
:103690007727882799270E94018AF101248D358D8B
:1036A000468D578DE20EF31E041F151FE60CF71C06
:1036B000081D191DE60EF71E081F191FF201E28EE4
:1036C000F38E048F158FF10185859927F2012481EE
:1036D0003581AC01429FC001439F900D529F900DD8
:1036E0001124AA27BB27868F978FA0A3B1A3668238
:1036F00077828086918629813A814B815C81A20EF6
:10370000B31EC41ED51EA286B386C486D58600E02D
:1037100010E00E946218C80124960FB6F894DEBF2C
:103720000FBECDBFDF91CF911F910F91FF90EF9012
:10373000DF90CF90BF90AF909F908F907F906F90D1
:103740005F904F903F902F9008952F923F924F920D
:103750005F926F927F928F929F92AF92BF92CF9221
:10376000DF92EF92FF920F931F93CF93DF93CDB72A
:10377000DEB72E970FB6F894DEBF0FBECDBFFC01AB
:10378000892B09F4A1C2848180330CF49DC2823359
:103790000CF490C2863409F097C28CC20E9467185C
:1037A00080913E0590913F050E94C2589E878D876B
:1037B000892B09F489C230903B05832D0E945B144C
:1037C0002B013C0180EE9FEFAFEFBFEF480E591E7B
:1037D0006A1E7B1EEFEAF2E09F012C5F3F4F808163
:1037E0009181A281B38184159505A605B70538F0AE
:1037F000D9018C919927282E882341F00CC02B5F8A
:103800003F4F3596B2E0213D3B0749F78D859E85B8
:103810000E94355959C29927AA27BB2789839A83C1
:10382000AB83BC83C301B20129813A814B815C81A6
:103830000E94538ADA01C90102E0880F991FAA1F6A
:10384000BB1F0A95D1F781509E4FAF4FBF4F19E074
:10385000B695A795979587951A95D1F789879A87F1
:10386000AB87BC874C015D01880C991CAA1CBB1C52
:1038700089819A81AB81BC81815A9F4FAF4FBF4FE5
:10388000880E991EAA1EBB1E8F559040A040B040C6
:1038900089839A83AB83BC8340913E0550913F0559
:1038A00060E070E08D859E850E94DF89CC24DD2458
:1038B000760110C001E010E0A70196016D857E85BC
:1038C000832D0E94D312892B51F40894C11CD11C62
:1038D000E11CF11CC814D904EA04FB0459F780E088
:1038E00090E00E94F1816D837E838F839887409161
:1038F0003E0550913F0560E070E08D859E850E94F9
:10390000DF89AD85BE85A254BE4F1D9281E08D93A7
:103910008D931D928BE08D931D921C921296EFE376
:10392000AE2EB12CC12CD12CFD01A192B192C1922D
:10393000D192DF014082518262827382AA5CB140DF
:10394000BE87AD877EEFE72E71E0F72EEA0EFB1EF5
:1039500065E5862E6AEA962EF7019182808201E063
:1039600010E020E030E040E050E0BD01832D0E94F7
:10397000D3128C01892B09F005C140913E0550916D
:103980003F0560E070E08D859E850E94DF898BEEAB
:10399000AD85BE858C9388E5FD01818380E98283B6
:1039A0000DE4038393E5948384E485831FE4168305
:1039B000978385E380878EE2818780E3828780E03A
:1039C00092E094878387258680E290E097878687B8
:1039D00082E0808B128A118A148A138A88EF858B81
:1039E000178A168A8FE390E0918F808F8FEF90E097
:1039F000938F828FED85FE85A48EB58EC68ED78E71
:103A000040A251A262A273A289859A85AB85BC852A
:103A100084A395A3A6A3B7A311A610A613A612A6C6
:103A200052E0A52EB12CC12CD12CED85FE85A4A68B
:103A3000B5A6C6A6D7A681E090E091AB80AB86E0A4
:103A400090E093AB82ABE05CFF4F1082329689E24C
:103A50008193FE87ED876D817E818F819885A3019B
:103A600092010E94018AAD85BE856D937D938D93F1
:103A70009D938EE48D931D9390E29D938D9321E40D
:103A80002D930D9385E48D939D939D939D939D938D
:103A900086E48D932D9384E58D9383E38D9382E368
:103AA0008D939D939D939C93A955B040BE87AD8700
:103AB000F7019182808201E010E02FE330E040E0E6
:103AC00050E0BD01832D0E94D3128C01892B09F097
:103AD00059C001E010E025E430E040E050E06D85A1
:103AE0007E85832D0E94D312892B09F0E7C0409177
:103AF0003E0550913F0560E070E08D859E850E94F7
:103B0000DF8981EA9FEFAFEFBFEF480E591E6A1EB3
:103B10007B1E82E592E5A1E6B1E4ED85FE8580831A
:103B20009183A283B383EC51FE4F82E792E7A1E435
:103B3000B1E681939193A193B193FE87ED87C30181
:103B4000B20129813A814B815C810E94538AAD8503
:103B5000BE852D933D934D935D93FD01A082B1826F
:103B6000C282D382EC5EF140FE87ED87D7018D9251
:103B70009C9220E430E040E050E0BF01832D0E94A1
:103B8000D3128C010115110509F086C040913E0544
:103B900050913F0560E070E08D859E850E94DF8931
:103BA0002D853E8588EF9FEFAFEFBFE0F901819350
:103BB0009193A193B1939F018FEF9FEFAFEFBFE080
:103BC000ED85FE8584839583A683B783F90184837D
:103BD0009583A683B78301E010E02FE530E040E055
:103BE00050E06D857E85832D0E94D3128C01892B38
:103BF00009F052C0C984DA84EB84FC848FE590E03C
:103C0000A0E0B0E0C80ED91EEA1EFB1E01E010E0E5
:103C1000A70196016D857E85832D0E94D312892B85
:103C200009F04CC040913E0550913F0560E070E0C6
:103C30008D859E850E94DF8995E4AD85BE859C9328
:103C400024E5FD01218388E48283938382E58483D4
:103C50008EE4858385E58683278380E2808781875C
:103C6000828788E08387158A148A138E128EED85E9
:103C7000FE85148E158E168E178E89859A85AB85D6
:103C8000BC85C80ED91EEA1EFB1EA7019601BF0106
:103C9000832D0E94D3128C018D859E850E943559FB
:103CA0000E946218012B81F4832D0E94F81900975D
:103CB00069F00AC06050704139F470CD8D859E85E1
:103CC0000E9435590E9462188FEF9FEF2E960FB613
:103CD000F894DEBF0FBECDBFDF91CF911F910F9142
:103CE000FF90EF90DF90CF90BF90AF909F908F901C
:103CF0007F906F905F904F903F902F9008950F931B
:103D00001F93CF93DF938C0180E092E00E94C25812
:103D1000EC01892B31F0802F0E94F819CE010E940E
:103D20003559DF91CF911F910F910895EF92FF9236
:103D30000F931F93CF93DF93FC01809132059091F5
:103D400033050097A9F58281863409F03FC083814D
:103D50008134E1F584818435C9F58485958507979B
:103D6000A9F537C04AEE59E16FE77EE180E090E0C7
:103D70000E9445158C01892B19F00EEF1FEF14C01E
:103D8000B70180E090E00E948F14C0E0D0E08C2F5B
:103D90000E94F8192196C330D105C9F781E090E05F
:103DA0009093330580933205C7010E9435591CC09A
:103DB000019761F48281863449F483818D3431F432
:103DC0008481803319F400E010E00EC00FEF1FEF84
:103DD0000BC00E945D1880E092E00E94C2587C01F6
:103DE000892B09F0BFCFEFCFC801DF91CF911F9191
:103DF0000F91FF90EF9008952F923F924F925F9214
:103E00006F927F928F929F92AF92BF92CF92DF92EA
:103E1000EF92FF920F931F93CF93DF93CDB7DEB74F
:103E2000A6970FB6F894DEBF0FBECDBF9EA38DA39D
:103E30004B018091320590913305892B21F48DA19E
:103E40009EA10E94961E0E94671860903405709093
:103E500035058DA19EA1009709F422C1FC01848142
:103E600080330CF41DC182330CF41DC1863409F07B
:103E700017C119C1F4018081882309F411C18AE1B5
:103E800090E00E94C2585C0180914C0590914D05D4
:103E9000A0914E05B0914F050097A105B10509F419
:103EA0001AC1A114B10409F4FBC0F40180818E325F
:103EB00009F4E7C08AE1F50111928A95E9F72090AB
:103EC00048053090490540904A0550904B05F40153
:103ED00080818F3209F006C102C1FFE3EF16F104C1
:103EE0000CF003C183010E0D1F1D992787FD9095CE
:103EF0000E94908AF80180830894E11CF11C0894C8
:103F0000811C911CF40180818F3209F4D2C08C3560
:103F100009F4CFC0882309F7CCC06EE270E0C3017A
:103F20000E94E689009721F409301105D8F50BC0ED
:103F3000DC011196FD0101900020E9F73197EA1BA1
:103F4000FB0B349778F58E010B5F1F4F80E2F80171
:103F500011928A95E9F748E050E060E270E0C8010C
:103F60000E94DF8943E050E060E270E0CE010D96F0
:103F70000E94DF89D801F301930104C08D932F5F64
:103F80003F4F319680818E3219F08823B9F70DC0EA
:103F9000F901DE011D9601C08D9381813196882340
:103FA000D9F703C021E030E002C020E030E0F401A6
:103FB00080818F3209F448C08C3509F445C08823CC
:103FC00009F05FC080E2888B80913D0580FD8DC047
:103FD0008AE3882E85E0982E69017E010894E11C11
:103FE000F11C92018101A301BE016B5F7F4FC401EF
:103FF0000E9469169B01AC0161157105810591054F
:1040000009F473C089819A81AB81BC81F5018083F9
:104010009183A283B3832483358346835783208788
:104020003187428753871486158616861786108A2D
:10403000118A128A138A918E808E158A148A178AA1
:10404000168A80E090E053C080E1888B80913D0526
:1040500080FD4BC069017E010894E11CF11C9201B6
:104060008101A301BE016B5F7F4F8AE395E00E944F
:1040700069161B012C016115710581059105A9F1D6
:104080002EC0C5010E9435590BC086E090E00E9409
:10409000C2588C01009771F5C5010E94355933C093
:1040A0000FEF1FEF30C080913C05882309F0E2CE6E
:1040B000F7CFE60CF71CF7011082F3010190002006
:1040C000E9F78F0101501040061917090D3011054D
:1040D00008F068CF22CFA114B10499F6E1CF08947B
:1040E000811C911CEE24FF240DCF81E090E001970C
:1040F00061F6C7CFFC01118210828DA19EA193832E
:104100008283B582A4820E946218C801A6960FB667
:10411000F894DEBF0FBECDBFDF91CF911F910F91FD
:10412000FF90EF90DF90CF90BF90AF909F908F90D7
:104130007F906F905F904F903F902F9008958FEFFA
:104140009FEF08952F923F924F925F926F927F92CE
:104150008F929F92AF92BF92CF92DF92EF92FF9297
:104160000F931F93CF93DF935C016B014A012901E9
:104170003801170181E090E00E94D211C0E0D0E048
:104180007601850109C0F80181918F010E94C71154
:10419000F70181937F012196C815D905A4F3C0E0EA
:1041A000D0E07301820109C0F80181918F010E9462
:1041B000C711F70181937F012196C215D305A4F39E
:1041C0000E94AF1180E090E0DF91CF911F910F919D
:1041D000FF90EF90DF90CF90BF90AF909F908F9027
:1041E0007F906F905F904F903F902F900895EF9247
:1041F000FF920F931F93CF93DF93CDB7DEB7229734
:104200000FB6F894DEBF0FBECDBF87ED89838FEF69
:104210008A83EE24FF2400E010E020E030E042E05A
:1042200050E0CE010196BC010E94A220892B19F01A
:104230008FEF90E002C08A81992722960FB6F894FA
:10424000DEBF0FBECDBFDF91CF911F910F91FF90C9
:10425000EF9008950F931F930E94F7200E94F7207C
:10426000082F60E070E02091A2053091A3050EC0F8
:104270006F5F7F4F808580239185891739F48AE0AD
:10428000189F9001112423533D4F18C0162F462F1D
:104290005527FA01EE0FFF1FCA01A3E0880F991FEF
:1042A000AA95E1F7E80FF91FE353FD4F8081918153
:1042B000A281B3810097A105B105D1F63093A30582
:1042C0002093A205CA011F910F910895EF92FF92CA
:1042D0000F931F93CF93DF937B018C01EA0119C0E9
:1042E000209731F461E070E080E090E00E94A25EEF
:1042F0000894E108F108010911098FEFE8168FEF22
:10430000F8068FEF08078FEF180719F48FEF9FEF6C
:1043100006C00E94F72087FFE3CF80E090E0DF91A6
:10432000CF911F910F91FF90EF9008955F926F9240
:104330007F928F929F92AF92BF92CF92DF92EF9235
:10434000FF920F931F93CF93DF93582E4A015B0187
:10435000E90138018701293031051CF08FEF9FEF0B
:1043600023C0A90160E070E084EA95E00E94DF8943
:104370005092A40581149104A104B10469F0C5010F
:10438000AA27BB278093A505BB27AB2D9A2D892D86
:104390008093A6058092A70576019301AE0164EA99
:1043A00075E0CB010E94A220DF91CF911F910F9168
:1043B000FF90EF90DF90CF90BF90AF909F908F9045
:1043C0007F906F905F9008958F929F92AF92BF926F
:1043D000CF92DF92EF92FF920F931F93CF93DF93D1
:1043E0004B015C018A016901C9010E948184EC01D1
:1043F000009719F40FEF1FEF36C07C0124E030E086
:1044000040E050E060E070E084E80E949621892B53
:1044100029F5E091A205F091A305068004C0880C5F
:10442000991CAA1CBB1C0A94D2F7CC24DD24EE24D0
:10443000FF2400E010E024E030E0B501A40183E8AF
:104440000E949621892B51F441E050E068EE73E020
:1044500080E090E00E9466218C0102C00FEF1FEF08
:10446000CE010E947E84C801DF91CF911F910F91F0
:10447000FF90EF90DF90CF90BF90AF909F908F9084
:104480000895CF92DF92EF92FF920F931F93E091E6
:10449000A205F091A305068004C0660F771F881F50
:1044A000991F0A94D2F769017A018A0128E030E065
:1044B000AB01BC0188EE0E9496211F910F91FF90E5
:1044C000EF90DF90CF900895CF92DF92EF92FF921E
:1044D0000F931F93AA27BB27CC24DD24EE24FF24AF
:1044E00000E010E024E030E0AC01BD0181E80E9472
:1044F00096211F910F91FF90EF90DF90CF9008953C
:1045000060957095809590952091AC053091AD05A2
:104510004091AE055091AF052623372348235923F8
:104520002093AC053093AD054093AE055093AF0595
:1045300080E090E00895AF92BF92CF92DF92EF9229
:10454000FF920F931F93CF93DF93CDB7DEB72297E0
:104550000FB6F894DEBF0FBECDBF9B015A01492FA5
:10456000552749838A83CC24DD247601850142E0E6
:1045700050E0BE016F5F7F4F87E50E941E728A1573
:104580009B0519F480E090E002C08FEF9FEF229628
:104590000FB6F894DEBF0FBECDBFDF91CF911F9154
:1045A0000F91FF90EF90DF90CF90BF90AF90089564
:1045B000AF92BF92CF92DF92EF92FF920F931F9331
:1045C000CF93DF93CDB7DEB722970FB6F894DEBF57
:1045D0000FBECDBF9B015A0119828A83CC24DD24F2
:1045E00076018A0142E050E0BE016F5F7F4F8FE6A7
:1045F0000E941E728A159B0519F480E090E002C0AB
:104600008FEF9FEF22960FB6F894DEBF0FBECDBF9F
:10461000DF91CF911F910F91FF90EF90DF90CF909E
:10462000BF90AF9008950F931F93CF93DF93CDB7B3
:10463000DEB721970FB6F894DEBF0FBECDBF8C0159
:1046400041E050E0BE016F5F7F4F8FE30E94D822B0
:10465000892BE9F489819927AA27BB272091AC05EA
:104660003091AD054091AE055091AF05822B932B53
:10467000A42BB52B8093AC059093AD05A093AE050C
:10468000B093AF05F80180839183A283B3838091B7
:10469000AC059091AD0521960FB6F894DEBF0FBE24
:1046A000CDBFDF91CF911F910F910895CF93DF93ED
:1046B000CDB7DEB724970FB6F894DEBF0FBECDBFDF
:1046C00080E00E941A71009721F4CE0101960E94A9
:1046D000132324960FB6F894DEBF0FBECDBFDF9133
:1046E000CF910895EF92FF920F931F93CF93DF9393
:1046F000CDB7DEB728970FB6F894DEBF0FBECDBF9B
:104700008C0148E050E0BE016F5F7F4F80E30E9464
:10471000D8227C01892B09F073C02981822F8295D0
:104720008F706AE0869FC00111242F70820F911D47
:10473000D8018D939C932A81822F82958F70869FBA
:10474000C00111242F70820F911DF8019383828381
:104750002B813327C9018F739070B4E095958795AD
:10476000BA95E1F7AC01A3E0440F551FAA95E1F714
:10477000880F991F840F951F2F703070820F931F21
:10478000958384832C81822F82958F70869FC001B0
:1047900011242F70820F911D978386832D81822F84
:1047A00082958F70869FC00111242F70820F911DFA
:1047B0000197918780878E81282F22952F70269FC1
:1047C000A001112499278F7090708C599F4F480F2A
:1047D000591F538742872885822F82958F70869F25
:1047E000C00111242F70820F911D4A9724F04C595B
:1047F0005F4F538742878F819927F8019587848778
:10480000C70128960FB6F894DEBF0FBECDBFDF916B
:10481000CF911F910F91FF90EF900895AF92BF92AB
:10482000CF92DF92EF92FF920F931F93CF93DF937C
:10483000CDB7DEB723970FB6F894DEBF0FBECDBF5E
:1048400019822FE32A835E010894A11CB11C892BD5
:10485000A1F082E08B83CC24DD24760100E010E01F
:1048600020E030E043E050E0B5018FE60E941E7288
:10487000009789F486E08B8306C01B82CC24DD245C
:10488000760100E010E020E030E043E050E0B501C8
:104890008FE60E941E7223960FB6F894DEBF0FBEFD
:1048A000CDBFDF91CF911F910F91FF90EF90DF90DF
:1048B000CF90BF90AF900895AF92BF92CF92DF920A
:1048C000EF92FF920F931F93CF93DF93CDB7DEB795
:1048D00021970FB6F894DEBF0FBECDBF13E1A12E16
:1048E000B12C0FC061E070E080E090E00E94A25E19
:1048F0000894A108B108A114B10419F48FEF9FEF37
:1049000014C0CC24DD24760101E010E09E012F5F6D
:104910003F4F40E050E060E070E087E50E941E728B
:104920008F5F9F4FF9F280E090E021960FB6F894E8
:10493000DEBF0FBECDBFDF91CF911F910F91FF90D2
:10494000EF90DF90CF90BF90AF9008952F923F925D
:104950004F925F926F927F928F929F92AF92BF928F
:10496000CF92DF92EF92FF920F931F93CF93DF933B
:104970003C014A012B0100E010E046C0C3018F73E7
:10498000907020E430E0281B390B540128153905BC
:1049900008F4590182E0282E312C2A0C3B1CC1015D
:1049A0000E948184EC01892BA1F1872D99278883AE
:1049B0006982A501B201CE0102960E94D68981E0EA
:1049C00090E00E940E248C01892B31F5CC24DD244B
:1049D000760100E010E020E030E0A101BE0187E5B3
:1049E0000E941E728C01CE010E947E840115110569
:1049F000B1F40E945C248C01892B89F48A189B08ED
:104A00006A0C7B1C4A0C5B1C8114910409F0B6CF24
:104A100006C00FEF1FEF03C0CE010E947E8480E02E
:104A200090E00E940E24C801DF91CF911F910F9159
:104A3000FF90EF90DF90CF90BF90AF909F908F90BE
:104A40007F906F905F904F903F902F9008958F923E
:104A50009F92AF92BF92CF92DF92EF92FF920F930D
:104A60001F93CF93DF934C015B01EA0181E090E05B
:104A70000E940E248C01892BC1F4CC24DD24760104
:104A800000E010E020E030E0AE01B5018FE60E94CA
:104A90001E728C01892B29F4892819F00E945C244C
:104AA0008C0180E090E00E940E24C801DF91CF913C
:104AB0001F910F91FF90EF90DF90CF90BF90AF903C
:104AC0009F908F900895EF92FF920F931F93CF9333
:104AD000DF93CDB7DEB72A970FB6F894DEBF0FBECF
:104AE000CDBF8B017A012AE0FE01319611922A9501
:104AF000E9F723E0880F991F2A95E1F78A8361156A
:104B0000710509F47AC040FF12C0FB014081518158
:104B1000842F6AE00E94208A282F2295207FCA01D4
:104B20006AE070E00E94408A280F20682B83E1FE33
:104B300012C0F80142815381842F6AE00E94208ACA
:104B4000282F2295207FCA016AE070E00E94408AE7
:104B5000280F20682C83E2FE12C0F80144815581A1
:104B6000842F6AE00E94208A282F2295207FCA0184
:104B70006AE070E00E94408A280F20682D83E3FEDF
:104B800012C0F80146815781842F6AE00E94208A72
:104B9000282F2295207FCA016AE070E00E94408A97
:104BA000280F20682E83E4FE14C0F801408551854B
:104BB000842F8F5F6AE00E94208A282F2295207F11
:104BC000CA0101966AE070E00E94408A280F2068BE
:104BD0002F83E7FE12C0F80144855585842F6AE0D3
:104BE0000E94208A282F2295207FCA016AE070E067
:104BF0000E94408A280F206829874AE050E0BE01C1
:104C00006F5F7F4F81E090E00E9427252A960FB6C4
:104C1000F894DEBF0FBECDBFDF91CF911F910F91F2
:104C2000FF90EF900895EF92FF920F931F93CF9311
:104C3000DF93CDB7DEB728970FB6F894DEBF0FBE6F
:104C4000CDBF7B018A01FA011182108292E1FB0142
:104C500011929A95E9F748E050E0BE016F5F7F4FEF
:104C6000880F880F880F0E94D822BC01892B09F079
:104C70009FC0298127FF20C0F80180819181816038
:104C8000918380833327C9018F779070F4E09595E5
:104C90008795FA95E1F7AC01E3E0440F551FEA95DB
:104CA000E1F7880F991F840F951F2F703070820FC6
:104CB000931FF701918380833A8137FF13C0F80176
:104CC00080819181826091838083832F82958F7010
:104CD0002AE0829FC00111243F70830F911DF701CC
:104CE000938382832B8127FF20C0F80180819181EB
:104CF0008460918380833327C9018F779070A4E00B
:104D000095958795AA95E1F7AC01F3E0440F551FFF
:104D1000FA95E1F7880F991F840F951F2F70307057
:104D2000820F931FF701958384833C8137FF13C063
:104D3000F80180819181886091838083832F82959F
:104D40008F702AE0829FC00111243F70830F911D54
:104D5000F701978386833D8137FF14C0F801808176
:104D60009181806191838083832F82958F702AE067
:104D7000829FC00111243F70830F911D0197F7019D
:104D8000918780873F8137FF13C0F801808191812F
:104D9000806891838083832F82958F702AE0829F21
:104DA000C00111243F70830F911DF70195878487FF
:104DB000CB0128960FB6F894DEBF0FBECDBFDF91B2
:104DC000CF911F910F91FF90EF9008950F931F9334
:104DD000CF93DF93CDB7DEB72A970FB6F894DEBF37
:104DE0000FBECDBF8C018AE0FE01319611928A95EB
:104DF000E9F70115110509F481C080E38A83F80100
:104E000040815181842F6AE00E94208A282F2295B8
:104E1000207FCA016AE070E00E94408A280F2B833D
:104E200042815381842F6AE00E94208A282F229594
:104E3000207FCA016AE070E00E94408A280F2C831C
:104E400044815581842F6AE00E94208A282F229570
:104E5000207FCA016AE070E00E94408A280F206823
:104E60002D8346815781842F6AE00E94208A282F53
:104E70002295207FCA016AE070E00E94408A280FD4
:104E80002E8340855185842F8F5F6AE00E94208A9F
:104E9000282F2295207FCA0101966AE070E00E94C7
:104EA000408A280F2F8342855385443651059CF054
:104EB000842F84566AE00E94208A282F2295207F22
:104EC000CA01845690406AE070E00E94408A280F30
:104ED000288780E20FC0842F6AE00E94208A282F52
:104EE0002295207FCA016AE070E00E94408A280F64
:104EF000288789E18A87F801848589874AE050E01C
:104F0000BE016F5F7F4F80E090E00E9427252A96C8
:104F10000FB6F894DEBF0FBECDBFDF91CF911F91CA
:104F20000F9108950F931F93E091B005F091B10593
:104F300019951F910F9108950E942B410895CF93C9
:104F4000DF930E94A53EEC01181619065CF080E282
:104F500098E09F938F9386ED8F930E94F4080F90B3
:104F60000F900F90CE01DF91CF9108950F931F9373
:104F70008A010E94933F8017910719F081E698E01B
:104F800002C08FE398E09F938F9386ED8F930E94EA
:104F9000F4080F900F900F901F910F9108950F93A9
:104FA0001F938C018DE193E00E94E945AB01BC01A8
:104FB00020E530E0C8010E945B42892B59F08DE763
:104FC00098E09F938F9386ED8F930E94F4080F9043
:104FD0000F900F901F910F910895CF92DF92EF9253
:104FE000FF920F931F93CF93DF93CDB7DEB7289730
:104FF0000FB6F894DEBF0FBECDBF7C011D821E82AE
:105000001F82188619821A821B821C8280EF91EF00
:10501000AFEFBFEF8093640490936504A0936604A0
:10502000B093670480EE98E09F938F9386ED8F9303
:105030000E94F4088BE293E00E94E94569837A8339
:105040008B839C8304E110E00F900F900F9085E01C
:10505000C82ED12CCC0EDD1EB601CE0101960E94C9
:10506000753C892BC1F068EE73E080E090E00E940F
:10507000A25E1F930F9384EB98E09F938F9386ED2E
:105080008F930E94F408015010400F900F900F90E2
:105090000F900F90E1F6C6010E94C7818C01FC01C0
:1050A000808191819F938F93828193819F938F932E
:1050B000848195819F938F9387E998E09F938F9345
:1050C00086ED8F930E94F408F801A481B581C28017
:1050D000D3806081718146815781208531858285A9
:1050E0009385F7019387828731872087578346838B
:1050F00071836083D382C282B583A4838DB79EB748
:1051000009960FB6F8949EBF0FBE8DBFC7012896B3
:105110000FB6F894DEBF0FBECDBFDF91CF911F91C8
:105120000F91FF90EF90DF90CF900895AF92BF92D4
:10513000CF92DF92EF92FF920F931F93CF93DF9363
:10514000CDB7DEB726970FB6F894DEBF0FBECDBF42
:10515000DE011196EFE5F3E086E001900D928150BB
:10516000E1F788E393E00E94E9455B016C0186E486
:1051700093E00E94E9457B018C0140E060E070E033
:1051800080EE93E00E942062892B19F080E090E08D
:1051900010C0A6019501BE016F5F7F4F84E593E0CB
:1051A0000E944B48892B19F081E090E002C082E018
:1051B00090E026960FB6F894DEBF0FBECDBFDF910C
:1051C000CF911F910F91FF90EF90DF90CF90BF9004
:1051D000AF9008958F929F92AF92BF92CF92DF923D
:1051E000EF92FF920F931F93CF93DF93CDB7DEB76C
:1051F00026970FB6F894DEBF0FBECDBF40E060E04B
:1052000070E080EE93E00E942062892B61F083E5DC
:1052100099E09F938F9386ED8F930E94F4080F90EF
:105220000F900F9037C020E030E040E050E060E0A9
:1052300070E084E593E00E94072B892B59F1DE0191
:105240001196E9E5F3E086E001900D928150E1F7D7
:1052500020E030E040E050E04E010894811C911CB9
:10526000B40184E593E00E94072B892B99F088E331
:1052700093E00E94E9455B016C0186E493E00E94A3
:10528000E9457B018C01A6019501B40184E593E019
:105290000E944B4821E030E040E050E06FEF7FEFAC
:1052A0008FEF9FEF0E94213A892B71F08BE399E0F9
:1052B0009F938F9386ED8F930E94F40883E090E094
:1052C0000F900F900F9022C08EE199E09F938F93E3
:1052D00016ED1F930E94F40885E099E09F938F9349
:1052E0001F930E94F40882E997E20E94173A909374
:1052F000B1058093B00584E090E02DB73EB72A5FFA
:105300003F4F0FB6F8943EBF0FBE2DBF26960FB687
:10531000F894DEBF0FBECDBFDF91CF911F910F91EB
:10532000FF90EF90DF90CF90BF90AF909F908F90C5
:1053300008958093780308950E94206020E033E070
:1053400040E050E06AEF75E083E793E00E941C655F
:105350008EEF0E94C65C0E944A5D0E94915C209183
:1053600078032F3FC1F393B783B7817F822B83BF2D
:1053700083B7816083BF889583B78E7F83BF83B7F0
:10538000817F9E70892B83BFE6CFCF93DF93DC01B3
:10539000FC0187E3819393E0ED019983DF0111968E
:1053A00081E08183FD01918386E0828385E090E046
:1053B000DF91CF9108958091B70599270895809145
:1053C000B8059091B9051092B9051092B8050895E5
:1053D00020E030E08091B705853011F421E030E025
:1053E000C9010895DF92EF92FF920F931F93CF931D
:1053F000DF93D62E79018A010E940462EC01892B89
:1054000051F08B85833039F4EF85F889309719F0A6
:105410008081863049F081E190E09093B9058093D6
:10542000B8058FEF9FEF35C00E94F85E6093C2050C
:105430007093C3058093C4059093C505E092BE05A3
:10544000F092BF050093C0051093C105D092B70537
:105450008091B5059091B605892B69F420E032E082
:10546000AE0169E77FE289E793E00E941C659093B3
:10547000B6058093B5058AEB95E00E94376140E060
:1054800050E060E070E08CEB95E00E948A6180E083
:1054900090E0DF91CF911F910F91FF90EF90DF90FF
:1054A0000895FC019A01AB018091B705882349F06A
:1054B00083E090E09093B9058093B8058FEF9FEF5C
:1054C000089568E0CF010E94F2290895FC019A0135
:1054D000AB018091B705853049F083E090E090936F
:1054E000B9058093B8058FEF9FEF089569E0CF016C
:1054F0000E94F2290895CF92DF92EF92FF920F93CC
:105500001F93CF93DF93FC0184E292E0DF011D92B1
:105510000197E9F781E08083818386E08283DF0160
:105520005C96C4E0D9E009900D928150E1F72483A4
:105530003583468357830C2CCD2CD02CD186C08646
:10554000E486F58606871787DF01A451BF4F93E6EF
:10555000FD01919382E8ED018983DF01119683E5D6
:105560008183FD013196ED019983DF01119685E379
:10557000818381E0FD018183628387E090E0DF9198
:10558000CF911F910F91FF90EF90DF90CF900895F2
:10559000CF93DF93CDB7DEB722970FB6F894DEBF77
:1055A0000FBECDBFDC015A834983FC0161939F018B
:1055B00082E0FD01818389819A81082E892F902DB7
:1055C000F9019283818384E090E022960FB6F894EB
:1055D000DEBF0FBECDBFDF91CF9108950F931F9314
:1055E000CF93DF93DC01CA01022FFD016193ED012E
:1055F00029831127A801BC01CF0101960E94D689F9
:10560000C8010296DF91CF911F910F9108954F929B
:105610005F926F927F928F929F92AF92BF92CF9242
:10562000DF92EF92FF920F931F93CF93DF93CDB74B
:10563000DEB760970FB6F894DEBF0FBECDBF3C015A
:105640002B012D873E874F87588B0E9404625C0197
:10565000009769F0FC018385833049F4C784D088C2
:10566000C114D10421F0F6018081863019F081E166
:1056700090E039C08E01095F1F4FF80111928A95A1
:10568000E9F746E050E06FEF70E04E010894811CAE
:10569000911CC4010E94DF8976010894E11CF11C71
:1056A00046E050E0B801C7010E94C989892B41F04A
:1056B00046E050E0B401C7010E94C989892B31F549
:1056C0004114510449F0A4E0B9E0F20186E00190F0
:1056D0000D92815069F0FBCFC3010E947448892B61
:1056E00039F082E090E09093B9058093B80599C0B5
:1056F000F701A4E0B9E086E00D9001928150E1F756
:1057000064EF71E080E090E00E94A25E20911609B3
:10571000309117094091180950911909E0900E092C
:10572000F0900F090091100910911109DA01C901D7
:105730008E219F21A023B1230097A105B10549F037
:1057400020930A0930930B0940930C0950930D09DB
:1057500058C02D853E854F85588961E0C3010E9460
:10576000F229892B09F05DC08091B705853031F5AC
:10577000E091B305F091B405C584D684E784F08840
:105780000581168127813085418152816381748131
:10579000C5010E94AB46E091B305F091B405E588E0
:1057A000F6880789108D218932894389548960E000
:1057B00070E080E090E00E949E3630C0F601878164
:1057C0009085A185B2850097A105B10539F5209195
:1057D0000A0930910B0940910C0950910D09E09094
:1057E0000E09F0900F090091100910911109DA01CA
:1057F000C9018E219F21A023B1230097A105B105E6
:1058000081F0A0901209B0901309C0901409D090B3
:10581000150964E079E0C3010E94A64780E090E0AA
:1058200002C08FEF9FEF60960FB6F894DEBF0FBEF9
:10583000CDBFDF91CF911F910F91FF90EF90DF903F
:10584000CF90BF90AF909F908F907F906F905F9020
:105850004F900895CF93DF93EC01892B79F089A5C0
:105860009AA5009711F00E947E848BA59CA50097B5
:1058700011F00E947E84CE010E947E84DF91CF9140
:105880000895EF92FF920F931F93CF93DF938C01B4
:105890007B01EA01DC018D919C91009711F00E943F
:1058A0007E84CE0101960E948184F80191838083D9
:1058B000009761F0209721F0AE01B7010E94D689D0
:1058C000D801ED91FC91EC0FFD1F1082DF91CF917B
:1058D0001F910F91FF90EF9008954F925F927F92EA
:1058E0008F929F92AF92BF92CF92DF92EF92FF92F0
:1058F0000F931F93CF93DF938C017B018DE290E098
:105900000E948184EC01009709F420C12C018DE2F2
:10591000FE0111928A95E9F780EC98EAA0E0B0E0E8
:105920008DA39EA3AFA3B8A7F80180899189A2890E
:10593000B38989839A83AB83BC8380EFC82ED12C33
:10594000C00ED11E00E1A02E0FEFB02EAE0CBF1C7A
:10595000EAC0662339F40894C11CD11C0894A1083C
:10596000B108E1C0F6017180872C9924A814B9040C
:105970000CF4E9C0653341F4F1E07F1609F0E3C0AF
:10598000F60182818883C3C06C3039F4B6016E5F42
:105990007F4FA401CE01899608C06F3049F4B6014B
:1059A0006E5F7F4FA401CE018B960E94412CAFC049
:1059B000F3E0F71508F0ABC0F60122818381992747
:1059C000AA27BB27EE24F82E092F1A2FE20EF11C6E
:1059D000011D111D2581332744275527522F4427A8
:1059E0003327222784819927AA27BB27DC019927FF
:1059F0008827280F391F4A1F5B1FE20EF31E041F62
:105A0000151F613029F4ED82FE820F8318877FC055
:105A10006C3129F4E986FA860B871C8778C06330DD
:105A200029F4ED86FE860F87188B71C0663009F069
:105A300041C0E98AFA8A0B8B1C8BF7E0F71508F056
:105A400066C0F60126813327442755272D8B3E8BD0
:105A50004F8B588F87819927AA27BB27BA2FA92F49
:105A6000982F8827820F931FA41FB51F8D8B9E8BA5
:105A7000AF8BB88F2085332744275527A9013327BB
:105A80002227280F391F4A1F5B1F2D8B3E8B4F8B00
:105A9000588F81859927AA27BB27B82FAA2799272E
:105AA0008827280F391F4A1F5B1F2D8B3E8B4F8B7A
:105AB000588F2DC0663329F4E98EFA8E0B8F1C8F18
:105AC00026C06A3359F40E2CE12E102D0F2CF02E27
:105AD000002DED8EFE8E0F8F18A319C06B3359F475
